:020000040800F2
:10000000A8F50120490200088901000889010008BB
:10001000890100088901000889010008000000002A
:10002000000000000000000000000000890100083E
:10003000890100080000000089010008890100080A
:100040008901000889010008B5020008B50200080E
:1000500089010008890100088D2300088901000832
:100060008901000889010008890100088901000848
:100070008901000889010008890100088901000838
:100080008901000889010008890100088901000828
:100090008901000889010008890100088901000818
:1000A0008901000889010008890100088901000808
:1000B000A1030008890100088901000889010008DE
:1000C00089010008890100088901000889010008E8
:1000D00089010008890100088901000889010008D8
:1000E00089010008B502000889010008890100089B
:1000F00089010008890100088901000889010008B8
:100100008901000889010008B92300088901000855
:10011000B5020008B502000889010008890100083D
:100120008901000889010008890100088901000887
:100130008901000889010008890100088901000877
:100140008901000889010008890100088901000867
:100150008901000889010008890100088901000857
:100160008901000889010008890100088901000847
:100170008901000889010008890100088901000837
:100180008901000889010008684620F007018D46B2
:1001900081B400AFFEE700BF90B484B000AF024668
:1001A0000B46FA71BB714FF00003FB60BB7903F0A3
:1001B00003034FEA83034FF00F0202FA03F3FB60DD
:1001C0004FF46053C4F20103BA794FEA9202D2B2FB
:1001D00010464FF46052C4F20102B9794FEA91011E
:1001E000C9B201F1020152F82110FA686FEA020265
:1001F000114000F1020243F822104FF46053C4F2A0
:100200000103BA794FEA9202D2B210464FF460521B
:10021000C4F20102B9794FEA9101C9B201F10201B8
:1002200052F82110FC79BA7902F003024FEA8202F7
:1002300004FA02F2114300F1020243F8221007F11E
:100240001007BD4690BC704780B582B000AF46F243
:100250002063C0F600037B6040F20003C2F200039B
:100260003B600BE07B681A683B681A603B6803F1EF
:1002700004033B607B6803F104037B603A6840F24F
:100280001803C2F200039A42ECD3084808494FF021
:1002900000028842B8BF40F8042BFFF6FAAF00F026
:1002A00043F907F10807BD4680BD00001800002093
:1002B000A8ED012080B400AFFEE700BF80B584B098
:1002C00000AF4FF4C06005F09FFF4FF01C033B737D
:1002D0004FF000037B734FF00003BB734FF001033B
:1002E000FB7307F10C03184605F0A2FF4FF0010065
:1002F0004FF0010100F056FA42F2D0033B804FF07C
:1003000000037B8040F6C3137B604FF000033B810A
:100310004FF00003BB723B464FF08040194605F09A
:10032000F9FF4FF080404FF0010106F0E1F84FF087
:1003300080404FF001014FF0010206F085F84FF0C8
:1003400080404FF0010106F05FF807F11007BD464D
:1003500080BD00BF80B584B000AF78604FF001036E
:10036000FB604FF47050C4F200004FF0020105F042
:1003700009FC0346002B0BD07B689BB24FF47050F6
:10038000C4F20000194605F0EFFB4FF00003FB60DC
:10039000FB68002BE5D107F11007BD4680BD00BF0B
:1003A00080B500AF4FF080404FF0010106F070F8CB
:1003B0000346002B3ED04FF40050C4F2010001F080
:1003C000F7FD00BF4FF40050C4F201004FF00201EE
:1003D00001F00CFE0346002BF4D04FF40050C4F2A1
:1003E000010001F0F5FD03464FEAD3039BB21A4624
:1003F00041F6D803C2F200031A6041F6D803C2F2F4
:1004000000031B68FF2B06DD41F6D803C2F2000390
:100410004FF0FF021A6041F6D803C2F200031B68D6
:10042000DBB2184600F0AAFD4FF080404FF001010A
:1004300006F05EF880BD00BF80B588B000AF4FF019
:1004400001004FF0010100F083F94FF480704FF08C
:10045000010100F0D1F94FF00203BB614FF003033B
:100460003B774FF00003FB7707F118034FF00000D4
:10047000C4F20200194602F069FD4FF000033B6030
:100480004FF000033B714FF001037B714FF000030D
:10049000FB604FF00003BB604FF000033B614FF087
:1004A00001033B753B464FF40050C4F2010019466E
:1004B00001F028FC4FF40050C4F201004FF001019C
:1004C0004FF001024FF0000301F094FC4FF4005094
:1004D000C4F201004FF0010101F070FC4FF0080080
:1004E0004FF0010100F034F94FF47043BB614FF05D
:1004F00001033B774FF00003BB774FF002037B779C
:1005000007F118034FF44060C4F20200194602F0EC
:100510001DFD4FF004004FF0010100F019F91846DD
:1005200007F12007BD4680BD80B500AF02F06EFE2A
:10053000FFF782FF00F0DEF900F0E4FA4FF0C800A8
:1005400000F01CFD4FF47050C4F200004FF00101A8
:1005500005F0EAFAFFF7B2FE01F052F801F076FE7C
:10056000FEE700BF80B483B000AF0346FB714FF0DD
:100570006803C4F24723FA791A6007F10C07BD46F5
:1005800080BC704780B489B000AF78604FF0000342
:10059000BB614FF000037B614FF00003FB614FF044
:1005A00002033B614FF00003FB604FF00203BB60AE
:1005B0004FF46053C4F202039B6803F00C03BB6169
:1005C000BB69042B0AD0082B0FD0002B60D17A68AE
:1005D0004FF41053C0F2F403136060E07A684FF4F4
:1005E0009053C0F27A03136059E04FF46053C4F2A1
:1005F00002035B6803F480034FEA9353FB604FF4FC
:100600006053C4F202035B6803F03F03BB60FB6806
:10061000002B14D04FF49053C0F27A03BA68B3FBA6
:10062000F2F24FF46053C4F20203596847F6C07304
:100630000B404FEA931303FB02F3FB6113E04FF40B
:100640001053C0F2F403BA68B3FBF2F24FF46053F4
:10065000C4F20203596847F6C0730B404FEA931384
:1006600003FB02F3FB614FF46053C4F202035B68C7
:1006700003F440334FEA134303F101034FEA43030A
:100680003B61FA693B69B2FBF3F27B681A6006E0F2
:100690007A684FF41053C0F2F403136000BF4FF4B4
:1006A0006053C4F202039B6803F0F003BB61BB69B3
:1006B0004FEA1313BB6140F20003C2F20003BA69B0
:1006C0009B181B78DBB27B617B681A687B6922FA16
:1006D00003F27B685A604FF46053C4F202039B68D4
:1006E00003F4E053BB61BB694FEA9323BB6140F263
:1006F0000003C2F20003BA699B181B78DBB27B616E
:100700007B685A687B6922FA03F27B689A604FF42F
:100710006053C4F202039B6803F46043BB61BB698E
:100720004FEA5333BB6140F20003C2F20003BA69DF
:100730009B181B78DBB27B617B685A687B6922FA65
:1007400003F27B68DA6007F12407BD4680BC70477E
:1007500080B483B000AF78600B46FB70FB78002B51
:100760000CD04FF46053C4F202034FF46052C4F251
:100770000202116B7A680A431A630DE04FF460536A
:10078000C4F202034FF46052C4F20202116B7A68A1
:100790006FEA02020A401A6307F10C07BD4680BCEB
:1007A000704700BF80B483B000AF78600B46FB7029
:1007B000FB78002B0CD04FF46053C4F202034FF4CB
:1007C0006052C4F20202116C7A680A431A640DE0A6
:1007D0004FF46053C4F202034FF46052C4F20202B9
:1007E000116C7A686FEA02020A401A6407F10C077A
:1007F000BD4680BC704700BF80B483B000AF786056
:100800000B46FB70FB78002B0CD04FF46053C4F206
:1008100002034FF46052C4F20202516C7A680A4338
:100820005A640DE04FF46053C4F202034FF4605277
:10083000C4F20202516C7A686FEA02020A405A64FA
:1008400007F10C07BD4680BC704700BF80B483B081
:1008500000AF78600B46FB70FB78002B0CD04FF498
:100860006053C4F202034FF46052C4F20202116AF0
:100870007A680A431A620DE04FF46053C4F202032F
:100880004FF46052C4F20202116A7A686FEA0202FF
:100890000A401A6207F10C07BD4680BC704700BFD2
:1008A00080B483B000AF78600B46FB70FB78002B00
:1008B0000CD04FF46053C4F202034FF46052C4F200
:1008C0000202516A7A680A435A620DE04FF460539B
:1008D000C4F202034FF46052C4F20202516A7A6811
:1008E0006FEA02020A405A6207F10C07BD4680BC5B
:1008F000704700BF80B58AB000AF07F120031846EB
:1009000002F0C6FB4FF010033B624FF0010387F883
:1009100024304FF0020387F827304FF0000387F8A8
:1009200026304FF0020387F825304FF00B004FF0D0
:100930000101FFF70DFF07F120034FF44060C4F2FF
:100940000200194602F002FB4FF0020387F8243040
:100950004FF0010387F826304FF410733B624FF0DD
:10096000000387F827304FF0020387F8253007F19E
:1009700020034FF48060C4F20200194602F0E6FA48
:100980004FF48060C4F202004FF006014FF0040201
:1009900002F0E8FB4FF48060C4F202004FF009015E
:1009A0004FF0040202F0DEFB4FF402104FF00101A1
:1009B000FFF7F8FE4FF00100FFF7D4FD4FF0000302
:1009C00087F826304FF4A4533B6207F120034FF41D
:1009D0000060C4F20200194602F0B8FA4FF01003AA
:1009E0003B6207F120034FF00000C4F202001946F9
:1009F00002F0ACFA4FF00000C4F202004FF0040124
:100A00004FF0060202F0AEFB4FF40060C4F20200A9
:100A10004FF007014FF0060202F0A4FB4FF4006014
:100A2000C4F202004FF00A014FF0060202F09AFBF6
:100A30004FF40060C4F202004FF00C014FF00602C8
:100A400002F090FB4FF44060C4F202004FF010013E
:100A500002F068FB4FF47050C4F2000004F0B2FEE4
:100A600042F61133BB614FF40073FB824FF0000379
:100A7000BB824FF400733B824FF000037B824FF048
:100A80000003BB8307F110034FF47050C4F2000061
:100A9000194604F01FFF4FF47050C4F200004FF0ED
:100AA000010105F041F84FF4A840C4F2000005F040
:100AB00089F848F2A063C0F201033B604FF00003E5
:100AC000BB804FF033033B814FF480637B814FF455
:100AD0008043BB814BF6FF73FB804FF4A840C4F208
:100AE00000004FF0010105F087F93B464FF4A840A4
:100AF000C4F20000194605F0A9F807F12807BD4621
:100B000080BD00BF80B584B000AF4FF0FF03FB7223
:100B10004FF44060C4F202004FF0100102F0F4FA0A
:100B200044F24023C0F20F03FB6003E0FB6803F1D3
:100B3000FF33FB60FB68002BF8D14FF00D033B71D6
:100B40004FF001037B7107F1040318464FF00201D7
:100B500000F0CEF84FF000033B714FF099037B712A
:100B600007F1040318464FF0020100F0C1F84FF0FE
:100B700047033B714FF080037B7107F10403184674
:100B80004FF0020100F0B4F84FF0320000F030F9FD
:100B90000346FB724FF032033B71FB7A63F07F0335
:100BA000DBB27B7107F1040318464FF0020100F03D
:100BB0009FF84FF0320000F01BF90346FB724FF034
:100BC00032033B71FB7A03F07F03DBB27B7107F1E9
:100BD000040318464FF0020100F08AF84FF00003BA
:100BE0003B714FF000037B7107F1040318464FF08F
:100BF000020100F07DF84FF004033B714FF0AF03AA
:100C00007B7107F1040318464FF0020100F070F801
:100C10004FF00D033B714FF070037B7107F104033C
:100C200018464FF0020100F063F84FF005033B71E6
:100C30004FF081037B7107F1040318464FF0020166
:100C400000F056F84FF006033B714FF007037B713D
:100C500007F1040318464FF0020100F049F84FF085
:100C60000A033B714FF000037B7107F10403184640
:100C70004FF0020100F03CF84FF027033B714FF0BA
:100C800000037B7107F1040318464FF0020100F0E6
:100C90002FF84FF09A033B714FF00A037B714FF02E
:100CA0000A03BB7107F1040318464FF0030100F07B
:100CB0001FF84FF01F033B714FF00F037B7107F1DB
:100CC000040318464FF0020100F012F84FF002033F
:100CD0003B714FF09E037B7107F1040318464FF000
:100CE000020100F005F807F11007BD4680BD00BF06
:100CF00080B584B000AF78600B46FB704FF0000306
:100D0000FB7300BF4FF4A840C4F200004FF4003161
:100D100005F066F90346002BF4D14FF4A840C4F265
:100D200000004FF0010105F087F800BF4FF4A84024
:100D3000C4F200004FF00101C1F2000105F050F9CA
:100D40000346002BF2D04FF4A840C4F200004FF04D
:100D500094014FF0000205F0AFF800BF4FF4A84037
:100D6000C4F200004FF08201C0F2070105F000F963
:100D70000346002BF2D01CE0FB7B7A68D3181B786B
:100D80004FF4A840C4F20000194605F0D3F8FB7BED
:100D900003F10103FB7300BF4FF4A840C4F200004D
:100DA0004FF08001C0F2070105F0E2F80346002B86
:100DB000F2D0FA7BFB789A42DED300BF4FF4A84012
:100DC000C4F200004FF00401C1F2000105F008F97F
:100DD0000346002BF2D04FF4A840C4F200004FF0BD
:100DE000010105F049F807F11007BD4680BD00BFBD
:100DF00080B584B000AF0346FB714FF00003FB7376
:100E000000BF4FF4A840C4F200004FF4003105F0D9
:100E1000E7F80346002BF4D14FF4A840C4F20000D9
:100E20004FF0010105F008F800BF4FF4A840C4F2EC
:100E300000004FF00101C1F2000105F0D1F80346B6
:100E4000002BF2D04FF4A840C4F200004FF0940100
:100E50004FF0000205F030F800BF4FF4A840C4F294
:100E600000004FF08201C0F2070105F081F803464F
:100E7000002BF2D0FB794FF4A840C4F200001946D1
:100E800005F058F800BF4FF4A840C4F200004FF03E
:100E90008001C0F2070105F06BF80346002BF2D089
:100EA0004FF4A840C4F200004FF0010104F0E4FF49
:100EB00000BF4FF4A840C4F200004FF4003105F029
:100EC0008FF80346002BF4D14FF4A840C4F2000081
:100ED0004FF0000105F00EF84FF4A840C4F20000F6
:100EE0004FF0010104F0A8FF00BF4FF4A840C4F286
:100EF00000004FF00101C1F2000105F071F8034656
:100F0000002BF2D04FF4A840C4F200004FF094013F
:100F10004FF0010204F0D0FF00BF4FF4A840C4F22C
:100F200000004FF00201C0F2030105F021F8034672
:100F3000002BF2D000BF4FF4A840C4F200004FF0E5
:100F40004001C0F2030105F013F80346002BF2D074
:100F50004FF4A840C4F2000004F0FCFF0346FB730A
:100F60004FF4A840C4F200004FF0010104F084FFE8
:100F7000FB7B184607F11007BD4680BD80B582B0E7
:100F800000AF0346FB71FB79E62B12D9FB7903F125
:100F90001903DBB24FF02000194600F021F8FB796D
:100FA00003F11903DBB24FF02100194600F018F8E5
:100FB00011E0FB7903F11903DBB24FF02000194671
:100FC00000F00EF8FB7903F11903DBB24FF02100BA
:100FD000194600F005F807F10807BD4680BD00BFBF
:100FE00080B582B000AF02460B46FA71BB7140F289
:100FF0001003C2F200034FF496121A6015E040F29B
:101000001003C2F200031B68002B14BF0022012250
:10101000D2B203F1FF3140F21003C2F200031960B3
:10102000002A02D000F0E6F8DFE04FF4A840C4F256
:1010300000004FF4003104F0D3FF0346002BDED153
:101040004FF4A840C4F200004FF0010104F0F4FE98
:1010500040F21003C2F200034FF480521A6015E010
:1010600040F21003C2F200031B68002B14BF0022E1
:101070000122D2B203F1FF3140F21003C2F20003A9
:101080001960002A02D000F0B5F8AEE04FF4A84095
:10109000C4F200004FF00101C0F2030104F068FF48
:1010A0000346002BDCD04FF4A840C4F200004FF000
:1010B00094014FF0000204F0FFFE40F21003C2F270
:1010C00000034FF480521A6015E040F21003C2F2A0
:1010D00000031B68002B14BF00220122D2B203F1CF
:1010E000FF3140F21003C2F200031960002A02D05F
:1010F00000F080F879E04FF4A840C4F200004FF00F
:101100008201C0F2070104F033FF0346002BDCD05C
:10111000FB794FF4A840C4F20000194604F00AFF1E
:1011200040F21003C2F200034FF480521A6015E03F
:1011300040F21003C2F200031B68002B14BF002210
:101140000122D2B203F1FF3140F21003C2F20003D8
:101150001960002A02D000F04DF846E04FF4A84094
:10116000C4F200004FF08001C0F2070104F000FF5C
:101170000346002BDCD0BB794FF4A840C4F200003A
:10118000194604F0D7FE40F21003C2F200034FF4F8
:1011900096121A6014E040F21003C2F200031B68BA
:1011A000002B14BF00220122D2B203F1FF3140F222
:1011B0001003C2F200031960002A01D000F01AF8EF
:1011C0004FF4A840C4F200004FF00401C1F2000146
:1011D00004F006FF0346002BDDD04FF4A840C4F214
:1011E00000004FF0010104F047FE07F10807BD467B
:1011F00080BD00BF80B400AFFEE700BF80B582B005
:1012000000AF0346FB71FB79002B06D14FF00200C3
:101210004FF0020100F0A4FF05E04FF004004FF092
:10122000020100F09DFF07F10807BD4680BD00BF29
:1012300080B483B000AF4FF00003FB7100BF4FF4E8
:101240006053C4F200031B899BB203F00203002B1E
:10125000F5D04FF46053C4F200034FF0FF029A81BF
:1012600000BF4FF46053C4F200031B899BB203F02C
:101270000103002BF5D04FF46053C4F200039B89A7
:101280009BB2FB71FB79184607F10C07BD4680BC89
:10129000704700BF80B582B000AF40F21903C2F2C0
:1012A00000034FF032021A70FFF7C2FFFFF7C0FFD2
:1012B0000346FB71FB79FF2B07D040F21903C2F202
:1012C00000031B78DBB2002BF0D1FB79184607F145
:1012D0000807BD4680BD00BF80B485B000AF03469F
:1012E000FB7100BF4FF46053C4F200031B899BB233
:1012F00003F00203002BF5D04FF46053C4F2000357
:10130000FA7992B29A8100BF4FF46053C4F200039D
:101310001B899BB203F00103002BF5D04FF46053FF
:10132000C4F200039B899BB2FB7307F11407BD460F
:1013300080BC704780B584B000AF03463960FB7154
:10134000FFF7A8FF0346FF2B02D04FF0FF0348E052
:10135000FB791846FFF7C0FF3B684FEA1363DBB227
:101360001846FFF7B9FF3B684FEA1343DBB2184654
:10137000FFF7B2FF3B684FEA1323DBB21846FFF7D3
:10138000ABFF3B68DBB21846FFF7A6FF4FF0000348
:10139000FB73FB79402B02D14FF09503FB73FB7974
:1013A000482B02D14FF08703FB73FB7B1846FFF7F6
:1013B00093FFFB794C2B01D1FFF73AFF4FF00A0363
:1013C000FB73FFF735FF0346BB73BB7B5BB2002BA0
:1013D00006DAFB7B03F1FF33FB73FB7B002BF0D1C1
:1013E000BB7B184607F11007BD4680BD80B588B0AD
:1013F00000AF4FF002004FF00101FFF7A9F94FF0E5
:1014000010004FF00101FFF7A3F94FF480404FF0B7
:101410000101FFF7C7F94FF008004FF00101FFF796
:1014200097F94FF002033B774FF00003BB774FF083
:101430000203FB774FF002037B774FF46043BB61FD
:1014400007F118034FF48060C4F20200194601F05E
:101450007DFD4FF00803BB614FF001033B774FF078
:101460000003BB774FF002037B7707F118034FF4BB
:101470008050C4F20200194601F068FD4FF480501C
:10148000C4F202004FF0080101F03EFE4FF480600C
:10149000C4F202004FF00D014FF0050201F062FEB0
:1014A0004FF48060C4F202004FF00E014FF00502CD
:1014B00001F058FE4FF48060C4F202004FF00F01BB
:1014C0004FF0050201F04EFE4FF46050C4F20000F0
:1014D00004F078F94FF00003BB804FF000033B812C
:1014E0004FF000037B814FF00003BB814FF400738A
:1014F000FB814FF018033B824FF000037B824FF0DB
:101500000703BB824FF48273FB8007F104034FF49F
:101510006050C4F20000194604F098F94FF460508E
:10152000C4F200004FF0010104F0DEFA4FF48050E5
:10153000C4F202004FF0080101F0F4FD07F12007AA
:10154000BD4680BD80B582B000AFFFF74FFF4FF0C2
:1015500000037B6017E04FF46050C4F200004FF0CE
:10156000FF0104F001FB00BF4FF46050C4F2000023
:101570004FF0020104F006FB0346002BF4D07B6819
:1015800003F101037B607B68092BE4DD4FF0010070
:101590004FF0010100F048FD4FF040004FF0000116
:1015A000FFF7C8FE4FF002004FF0000100F03CFDD5
:1015B0004FF003004FF0000100F036FD4FF0040043
:1015C0004FF0000100F030FD4FF0000041F2844187
:1015D000C2F2000103F000FB03461A4641F28043C9
:1015E000C2F200031A7041F28043C2F200031B787A
:1015F0001846FFF703FE07F10807BD4680BD00BF90
:1016000080B500AF01F002FEFFF79CFF4FF0000332
:10161000184680BD80B592B000AF4FF001004FF08A
:10162000000100F001FD4FF002004FF0000100F05A
:10163000FBFC4FF003004FF0000100F0F5FC4FF011
:1016400004004FF0000100F0EFFC41F2B460C2F280
:10165000000046F22051C0F600014FF0010203F0F5
:10166000EDFA03461A4641F28043C2F200031A70B3
:1016700041F28043C2F200031B781846FFF7BEFD1B
:1016800007F1140207F1420341F2B460C2F2000014
:1016900011464FF0180203F079FC03461A4641F256
:1016A0008043C2F200031A7007F1080207F14203F7
:1016B00041F2B460C2F2000011464FF0040203F0A0
:1016C00065FC03461A4641F28043C2F200031A70D9
:1016D00007F1140207F1420341F2B460C2F20000C4
:1016E00011464FF0040203F051FC03461A4641F242
:1016F0008043C2F200031A7007F1120207F142039D
:1017000041F2B460C2F2000011464FF0020203F051
:101710003DFC03461A4641F28043C2F200031A70B0
:1017200007F1140207F1420341F2B460C2F2000073
:1017300011464FF0060203F029FC03461A4641F217
:101740008043C2F200031A7007F10C0207F1420352
:1017500041F2B460C2F2000011464FF0040203F0FF
:1017600015FC03461A4641F28043C2F200031A7088
:1017700040F22800C2F2000046F22851C0F60001F3
:101780004FF00A0203F05AFA03461A4641F2804328
:10179000C2F200031A704FF001004FF0010100F097
:1017A00043FC4FF000037B6441F6E403C2F2000304
:1017B0004FF000021A600FE07B6C03F101037B64C1
:1017C00041F6E403C2F200031B6803F1010241F693
:1017D000E403C2F200031A6041F6E403C2F200031C
:1017E0001B681A46F9687B8AB1FBF3F39A42E3D38C
:1017F00007F1420340F22800C2F2000046F23451E1
:10180000C0F600014FF00F0203F03CFD03461A46FC
:1018100041F28043C2F200031A70BB681A463B468D
:101820001046194600F09CF9024607F1420340F2C7
:101830002800C2F2000011464FF0050203F022FD1D
:1018400003461A4641F28043C2F200031A7007F1C0
:10185000420340F22800C2F2000046F24851C0F6AE
:1018600000014FF00F0203F00DFD03461A4641F24E
:101870008043C2F200031A70FB681A463B461046CA
:10188000194600F06DF9024607F1420340F22800C4
:10189000C2F2000011464FF0050203F0F3FC0346CC
:1018A0001A4641F28043C2F200031A7007F1420364
:1018B00040F22800C2F2000046F25C51C0F600017E
:1018C0004FF0120203F0DEFC03461A4641F2804359
:1018D000C2F200031A707B8A1A463B46104619462C
:1018E00000F03EF9024607F1420340F22800C2F23E
:1018F000000011464FF0050203F0C4FC03461A46EF
:1019000041F28043C2F200031A7007F1420340F231
:101910002800C2F2000046F27051C0F600014FF0FC
:10192000120203F0AFFC03461A4641F28043C2F2B2
:1019300000031A703B46786C194600F011F9024614
:1019400007F1420340F22800C2F2000011464FF0B6
:10195000050203F097FC03461A4641F28043C2F2A7
:1019600000031A7040F22800C2F2000003F014FFD6
:1019700003461A4641F28043C2F200031A7041F650
:10198000E003C2F200034FF000021A6041F6E403E4
:10199000C2F200034FF000021A6017E041F6E003C4
:1019A000C2F200031B6803F1010241F6E003C2F238
:1019B00000031A6041F6E403C2F200031B6803F15E
:1019C000010241F6E403C2F200031A6041F6E403A7
:1019D000C2F200031A6847F22F539A42DEDD9CE000
:1019E00041F6E003C2F200031A687B6C9A4206DDFE
:1019F00041F6DC03C2F200037A6C1A6009E041F69A
:101A0000E003C2F200031A6841F6DC03C2F20003ED
:101A10001A6041F6E403C2F200034FF000021A60BC
:101A20002BE07B8A1A4607F1100107F1420341F2CD
:101A3000B460C2F2000003F0A9FA03461A4641F26C
:101A40008043C2F200031A7041F6E403C2F20003BD
:101A50001A683B8A194641F6E803C2F2000343F8CC
:101A6000221041F6E403C2F200031B6803F10102F5
:101A700041F6E403C2F200031A6041F6E403C2F245
:101A800000031A6841F6DC03C2F200031B689A42A5
:101A9000C7DB41F6E403C2F200034FF000021A6014
:101AA00027E041F6E403C2F200031A6841F6E803B6
:101AB000C2F2000353F822301846FEF74BFC41F601
:101AC000E403C2F200031A6841F6E803C2F200031D
:101AD00053F822301846FEF73DFC41F6E403C2F20B
:101AE00000031B6803F1010241F6E403C2F20003A4
:101AF0001A6041F6E403C2F200031A6841F6DC03FF
:101B0000C2F200031B689A42CBDB41F6DC03C2F24F
:101B100000031B687A6CD31A7B647B6C002B3FF745
:101B20005FAF4FF001004FF0000100F07DFA41F28D
:101B3000B460C2F2000003F02FFE03461A4641F2E1
:101B40008043C2F200031A7041F28043C2F20003E4
:101B50001B781846FFF752FB07F14807BD4680BDCA
:101B600080B485B000AF786039604FF00003FB604F
:101B70004FF00003FB6009E0FB683A68D3184FF0B0
:101B800000021A70FB6803F10103FB60FB68042B81
:101B9000F2DD3B6803F10400796846F26763C6F240
:101BA000666383FB01234FEAA3024FEAE173D21A73
:101BB00013464FEA83039B184FEA4303CA1AD3B272
:101BC00003F13003DBB203703B6803F103007A6872
:101BD00046F26763C6F2666383FB02134FEAA30112
:101BE0004FEAE273C91A46F26763C6F2666383FB83
:101BF00001234FEAA3024FEAE173D21A13464FEAD8
:101C000083039B184FEA4303CA1AD3B203F130038C
:101C1000DBB203703B6803F102007A6848F21F539D
:101C2000C5F2EB1383FB02134FEA63114FEAE27331
:101C3000C91A46F26763C6F2666383FB01234FEA63
:101C4000A3024FEAE173D21A13464FEA83039B18AB
:101C50004FEA4303CA1AD3B203F13003DBB2037075
:101C60003B6803F101007A6844F6D353C1F2620382
:101C700083FB02134FEAA3114FEAE273C91A46F23B
:101C80006763C6F2666383FB01234FEAA3024FEA50
:101C9000E173D21A13464FEA83039B184FEA4303BA
:101CA000CA1AD3B203F13003DBB203707A6848F684
:101CB000AD33C6F6DB0383FB02134FEA23314FEA51
:101CC000E273C91A46F26763C6F2666383FB0123B7
:101CD0004FEAA3024FEAE173D21A13464FEA830395
:101CE0009B184FEA4303CA1AD3B203F13003DAB2A6
:101CF0003B681A703B68184607F11407BD4680BC64
:101D0000704700BF80B485B000AF786039604FF095
:101D10000003FB604FF00003FB727B685B68FB60B5
:101D2000FB6823F0407323F48073FB603B681B79EE
:101D30004FEA03223B681B681343FA681343FB60B6
:101D40007B68FA685A607B689B68FB60FA684FF2B0
:101D5000FD73CCF2FF031340FB603B681A693B68DC
:101D6000DB681A433B689B681A433B685B794FEA20
:101D700043031343FA681343FB607B68FA689A6075
:101D80007B68DB6AFB60FB6823F47003FB603B68E5
:101D90001B7D03F1FF33DAB2FB7A1343FB72FB7A4C
:101DA0004FEA0353FA681343FB607B68FA68DA6210
:101DB00007F11407BD4680BC704700BF80B483B0F4
:101DC00000AF78600B46FB70FB78002B06D07B6879
:101DD0009B6843F001027B689A6005E07B689B6822
:101DE00023F001027B689A6007F10C07BD4680BCB6
:101DF000704700BF80B485B000AF7860F970BA70EA
:101E00007B704FF00003FB604FF00003BB60FB787A
:101E1000092B27D97B68DB68FB60FA7813464FEA09
:101E200043039B18A3F11E034FF0070202FA03F3CA
:101E3000BB60BB686FEA0303FA681340FB60797804
:101E4000FA7813464FEA43039B18A3F11E0301FAE5
:101E500003F3BB60FA68BB681343FB607B68FA68F6
:101E6000DA6022E07B681B69FB60FA7813464FEA70
:101E700043039B184FF0070202FA03F3BB60BB68F1
:101E80006FEA0303FA681340FB607978FA78134627
:101E90004FEA43039B1801FA03F3BB60FA68BB687F
:101EA0001343FB607B68FA681A61BB78062B27D85E
:101EB0007B685B6BFB60BB7803F1FF3213464FEA34
:101EC00083039B184FF01F0202FA03F3BB60BB6849
:101ED0006FEA0303FA681340FB60F978BB7803F1FB
:101EE000FF3213464FEA83039B1801FA03F3BB60EA
:101EF000FA68BB681343FB607B68FA685A6351E079
:101F0000BB780C2B27D87B681B6BFB60BA78134619
:101F10004FEA83039B18A3F123034FF01F0202FA39
:101F200003F3BB60BB686FEA0303FA681340FB600E
:101F3000F978BA7813464FEA83039B18A3F1230379
:101F400001FA03F3BB60FA68BB681343FB607B686C
:101F5000FA681A6326E07B68DB6AFB60BA7813468E
:101F60004FEA83039B18A3F141034FF01F0202FACB
:101F700003F3BB60BB686FEA0303FA681340FB60BE
:101F8000F978BA7813464FEA83039B18A3F141030B
:101F900001FA03F3BB60FA68BB681343FB607B681C
:101FA000FA68DA6207F11407BD4680BC704700BFCB
:101FB00080B483B000AF78607B689B6843F0804258
:101FC0007B689A6007F10C07BD4680BC704700BF74
:101FD00080B483B000AF78607B68DB6C9BB218463E
:101FE00007F10C07BD4680BC704700BF80B485B0C8
:101FF00000AF78600B46FB704FF00003FB737B680B
:102000001A68FB781340002B03D04FF00103FB73D9
:1020100002E04FF00003FB73FB7B184607F1140747
:10202000BD4680BC704700BF80B582B000AF78600D
:1020300039607B68012B20D13B68002B08DA4FF414
:102040004060C4F202004FF4805101F079F87FE063
:102050003B68002B08D14FF44060C4F202004FF4FB
:10206000805101F05FF873E04FF44060C4F2020069
:102070004FF4805101F048F86AE07B68022B20D1D0
:102080003B68002B08DA4FF44060C4F202004FF4C2
:10209000005101F055F85BE03B68002B08D14FF48C
:1020A0004060C4F202004FF4005101F03BF84FE0F1
:1020B0004FF44060C4F202004FF4005101F024F8E4
:1020C00046E07B68032B20D13B68002B08DA4FF4F5
:1020D0004060C4F202004FF4804101F031F837E073
:1020E0003B68002B08D14FF44060C4F202004FF46B
:1020F000804101F017F82BE04FF44060C4F2020079
:102100004FF4804101F000F822E07B68042B1FD1DE
:102110003B68002B08DA4FF44060C4F202004FF431
:10212000004101F00DF813E03B68002B08D14FF49B
:102130004060C4F202004FF4004100F0F3FF07E0FA
:102140004FF44060C4F202004FF4004100F0DCFFA5
:102150004FF00003184607F10807BD4680BD00BFD9
:1021600080B586B000AF7860396044F24023C0F299
:102170000F03BB6078684FF00001FFF755FF4FF089
:1021800000037B6107E03B6903F101033B617B696D
:1021900003F101037B61BA6813464FEA83039A187F
:1021A0007B699A42EFDC4FF00003FB6031E0786816
:1021B0004FF00101FFF738FF4FF000037B6107E0AC
:1021C0003B6903F101033B617B6903F101037B611F
:1021D000BB684FEA43027B699A42F1DC78684FF0B2
:1021E0000001FFF721FF4FF000037B6107E03B692F
:1021F00003F101033B617B6903F101037B61BB6870
:102200004FEA43027B699A42F1DCFB6803F1010368
:10221000FB60FA683B689A42C9DB4FF000037B61C0
:1022200007E03B6903F101033B617B6903F10103B3
:102230007B61BA6813464FEA43039A187B699A4256
:10224000EFDC07F11807BD4680BD00BF80B500AFC9
:1022500000F004F800F04EF880BD00BF80B586B0F5
:1022600000AF4FF001004FF00101FEF771FA4FF09F
:1022700001033B614FF000033B754FF00003FB751A
:1022800007F110034FF00000C4F20200194600F0FD
:102290005DFE4FF4C06003F0B7FF4FF006033B71E3
:1022A0004FF001037B714FF00103BB714FF001034D
:1022B000FB7107F10403184603F0BAFF4FF0010366
:1022C000BB604FF000033B734FF008037B734FF08C
:1022D0000103BB7307F10803184603F0BDFE4FF07E
:1022E00000004FF00001FDF757FF07F11807BD464A
:1022F00080BD00BF80B584B000AF4FF4C06003F074
:1023000083FF4FF032033B734FF001037B734FF0B9
:102310000003BB734FF00103FB7307F10C03184676
:1023200003F086FF4FF008004FF00101FEF73AFA84
:1023300042F2D0033B804FF000037B804FF0C80394
:102340007B604FF000033B814FF00003BB723B46C4
:102350004FF44060C4F20000194603F0DBFF4FF475
:102360004060C4F200004FF0010104F0C1F84FF4E6
:102370004060C4F200004FF001014FF0010204F090
:1023800063F807F11007BD4680BD00BF80B500AF00
:102390004FF0010003F0FCFE0346002B07D04FF482
:1023A0004060C4F200004FF0010104F02DF84FF03E
:1023B000010003F019FF80BD80B500AF4FF440600D
:1023C000C4F200004FF0010104F062F80346002B54
:1023D00024D04FF00000C4F202004FF0010100F0E1
:1023E00075FE0346002B09D04FF44060C4F2020092
:1023F0004FF4805100F0A4FEFFF70CF94FF4406059
:10240000C4F200004FF0000103F0FEFF4FF4406003
:10241000C4F200004FF0010104F06AF880BD00BF73
:1024200080B400AF4FF48063C4F202034FF48062C3
:10243000C4F20202528B92B242F4006292B25A8308
:10244000BD4680BC704700BF80B400AF4FF48063CE
:10245000C4F202034FF48062C4F20202128B92B201
:1024600042F4006292B21A83BD4680BC704700BF3E
:1024700080B483B000AF0346FB7100BF4FF46053DC
:10248000C4F200031B899BB203F00203002BF5D0BA
:102490004FF46053C4F20003FA7992B29A8107F1C3
:1024A0000C07BD4680BC704780B483B000AF4FF0CE
:1024B0000003FB7100BF4FF46053C4F200031B899B
:1024C0009BB203F00203002BF5D04FF46053C4F22B
:1024D00000034FF0FF029A8100BF4FF46053C4F233
:1024E00000031B899BB203F00103002BF5D04FF4CE
:1024F0006053C4F200039B899BB2FB71FB791846C1
:1025000007F10C07BD4680BC704700BF80B582B0A4
:1025100000AF7860FFF7C8FF03461A467B681A7061
:1025200007F10807BD4680BD80B582B000AF40F21C
:102530001B03C2F200034FF032021A70FFF7B4FF20
:10254000FFF7B2FF0346FB71FB79FF2B07D040F288
:102550001B03C2F200031B78DBB2002BF0D1FB7926
:10256000184607F10807BD4680BD00BF80B582B0A0
:1025700000AFFFF769FF4FF00003FB7107E04FF07A
:10258000FF00FFF775FFFB7903F10103FB71FB7996
:10259000092BF4D940F21D03C2F200034FF00102EF
:1025A0001A7007F10807BD4680BD00BF80B400AFB8
:1025B00040F21D03C2F200034FF000021A70BD4644
:1025C00080BC704780B400AF40F21D03C2F200032C
:1025D0001B781846BD4680BC704700BF80B584B0EC
:1025E00000AF7860396040F21A03C2F200034FF086
:1025F0000A021A70FFF758FF0346FB73FB7BFF2BA1
:1026000007D140F21A03C2F200031B78DBB2002BA1
:10261000F0D1FB7BFE2B02D04FF000031CE07B6867
:102620007A6802F101027A601846FFF76FFF7B6853
:102630007A6802F101027A601846FFF767FF3B688B
:10264000A3F102033B603B68002BE8D1FFF72CFFAE
:10265000FFF72AFF4FF00103184607F11007BD46A8
:1026600080BD00BF80B584B000AF78600B46FB70C2
:102670004FF00003BB60FFF757FF0346FF2B02D06C
:102680004FF0000349E0FB781846FFF7F1FEFB78B6
:10269000FD2B38D04FF00003BB737B681B787A6842
:1026A00002F101027A601846FFF7E2FE7B681B78B0
:1026B0007A6802F101027A601846FFF7D9FEBB7B07
:1026C00003F1FF33BB73BB7B002BE6D1FFF7ECFEBE
:1026D000FFF7EAFE0CE0FFF7E7FE0346FB73FB7B28
:1026E00003F01F03052B07D0BB6803F10103BB6098
:1026F000BB68402BEFD900E000BF00BFFFF7D4FE5E
:102700000346002BFAD0FB7B03F01F03052B02D1FD
:102710004FF0010301E04FF00003184607F11007E6
:10272000BD4680BD80B584B000AF03463960FB7103
:10273000FFF7FAFE0346FF2B02D04FF0FF0348E0FD
:10274000FB791846FFF794FE3B684FEA1363DBB250
:102750001846FFF78DFE3B684FEA1343DBB218467D
:10276000FFF786FE3B684FEA1323DBB21846FFF7FC
:102770007FFE3B68DBB21846FFF77AFE4FF000039E
:10278000FB73FB79402B02D14FF09503FB73FB7970
:10279000482B02D14FF08703FB73FB7B1846FFF7F2
:1027A00067FEFB794C2B01D1FFF77EFE4FF00A0349
:1027B000FB73FFF779FE0346BB73BB7B5BB2002B59
:1027C00006DAFB7B03F1FF33FB73FB7B002BF0D1BD
:1027D000BB7B184607F11007BD4680BD90B585B09C
:1027E00000AF0346FB71FB79002B02D04FF00103D1
:1027F00015E140F21403C2F200031B78DBB203F0D0
:102800000203002B06D040F21403C2F200031B782F
:10281000DBB204E1FFF7AAFEFFF702FE4FF0000370
:10282000BB734FF040004FF00001FFF77BFF034602
:10283000012B40F0D08040F21A03C2F200034FF0A7
:1028400064021A704FF048004FF4D571FFF76AFF29
:102850000346012B6AD14FF00003FB730DE0FC7BB4
:10286000FFF722FE03461A4607F110010B1903F881
:10287000082CFB7B03F10103FB73FB7B032BEED9DD
:10288000BB7A012B40F0A780FB7AAA2B40F0A380F3
:102890004FF077004FF00001FFF744FF0346012B94
:1028A00008D84FF069004FF08041FFF73BFF034627
:1028B000002B08D040F21A03C2F200031B78DBB2EF
:1028C000002BE5D100E000BF40F21A03C2F2000382
:1028D0001B78DBB2002B7ED04FF07A004FF0000166
:1028E000FFF720FF0346002B75D14FF00003FB7369
:1028F0000DE0FC7BFFF7D8FD03461A4607F11001F7
:102900000B1903F8082CFB7B03F10103FB73FB7B22
:10291000032BEED93B7A03F04003002B02D04FF09B
:10292000060301E04FF00203BB7354E04FF0770061
:102930004FF00001FFF7F6FE0346012B0BD84FF0D6
:1029400069004FF00001FFF7EDFE0346012B02D8AE
:102950004FF0020301E04FF00103BB73BB7B022B7E
:1029600012D14FF077004FF00001FFF7DBFE034676
:10297000012B12D84FF069004FF00001FFF7D2FE93
:102980000346002B09D112E04FF041004FF0000147
:10299000FFF7C8FE0346002B08D040F21A03C2F22C
:1029A00000031B78DBB2002BD8D100E000BF40F25F
:1029B0001A03C2F200031B78DBB2002B08D04FF0E1
:1029C00050004FF40071FFF7ADFE0346002B02D01C
:1029D0004FF00003BB7340F21C03C2F20003BA7B4A
:1029E0001A70FFF731FDFFF75FFDBB7B002B0ED0A8
:1029F00040F21403C2F200031B78DBB223F00103A0
:102A0000DAB240F21403C2F200031A7001E0FFF7D9
:102A1000CDFD40F21403C2F200031B78DBB218466E
:102A200007F11407BD4690BD80B483B000AF0346E4
:102A3000FB71FB79002B02D04FF0010305E040F25F
:102A40001403C2F200031B78DBB2184607F10C072F
:102A5000BD4680BC704700BF80B584B000AFB96090
:102A60007A600246FA73BB73FB7B002B02D1BB7BFF
:102A7000002B02D14FF004035FE040F21403C2F2D6
:102A800000031B78DBB203F00103002B02D04FF0F0
:102A9000030352E040F21C03C2F200031B7803F070
:102AA0000403002B03D17B684FEA43237B60FFF7CD
:102AB000B7FCBB7B012B13D14FF051007968FFF7B6
:102AC00031FE0346002B2ED1B8684FF40071FFF79A
:102AD00085FD0346002B26D04FF00003BB7322E098
:102AE0004FF052007968FFF71DFE0346002B1AD104
:102AF000B8684FF40071FFF771FD0346002B0BD04F
:102B0000BB6803F50073BB60BB7B03F1FF33BB7392
:102B1000BB7B002BECD100E000BF4FF04C004FF02E
:102B20000001FFF7FFFDFFF78FFCFFF7BDFCBB7B4C
:102B3000002B0CBF00230123DBB2184607F110075E
:102B4000BD4680BD80B584B000AFB9607A600246F2
:102B5000FA73BB73FB7B002B02D1BB7B002B02D132
:102B60004FF0040387E040F21403C2F200031B7825
:102B7000DBB203F00103002B02D04FF003037AE035
:102B800040F21403C2F200031B78DBB203F004032B
:102B9000002B02D04FF002036DE040F21C03C2F2A2
:102BA00000031B7803F00403002B03D17B684FEA7A
:102BB00043237B60FFF734FCBB7B012B13D14FF029
:102BC00058007968FFF7AEFD0346002B49D1B8687D
:102BD0004FF0FE01FFF746FD0346002B41D04FF0BA
:102BE0000003BB733DE040F21C03C2F200031B78FC
:102BF00003F00203002B0BD04FF077004FF00001E1
:102C0000FFF790FDBB7B4FF057001946FFF78AFD99
:102C10004FF059007968FFF785FD0346002B20D15E
:102C2000B8684FF0FC01FFF71DFD0346002B0BD0E9
:102C3000BB6803F50073BB60BB7B03F1FF33BB7361
:102C4000BB7B002BECD100E000BF4FF000004FF049
:102C5000FD01FFF707FD0346002B02D14FF00103F2
:102C6000BB73FFF7F1FBFFF71FFCBB7B002B0CBF17
:102C700000230123DBB2184607F11007BD4680BDD3
:102C800090B58BB000AF0B463A600246FA71BB714B
:102C90003B683B62FB79002B02D04FF0040346E116
:102CA0004FF0010387F82730BB79052B2DD13B6A04
:102CB0001B78012B0FD0022B14D0002B20D1FFF753
:102CC00081FC0346002B01D0FFF770FC4FF000039E
:102CD00087F8273029E1FFF749FC4FF0000387F818
:102CE000273022E13B6A03F10104FFF76BFC034646
:102CF000DBB223704FF0000387F8273000BF14E1E8
:102D00004FF0040387F827300FE140F21403C2F2BA
:102D100000031B78DBB203F00103002B02D04FF05D
:102D2000030304E1FFF77CFBBB790D2B00F2ED8080
:102D300001A252F823F000BF532E0008712D0008A5
:102D4000412E00080B2F00080B2F00080B2F000846
:102D50000B2F00080B2F00080B2F00080B2F00086B
:102D60000B2F0008672E0008932E0008BF2E0008C6
:102D70004FF049004FF00001FFF7D4FC0346002B51
:102D800040F0C88007F10C0318464FF01001FFF720
:102D900025FC0346002B00F0BD803B7B4FEA9313DC
:102DA000DBB2012B10D17B7D1A463B7D4FEA03231A
:102DB0009BB2D3189BB203F10103FB83FB8B4FEA59
:102DC00083223B681A6036E07B7C03F00F03DAB2A3
:102DD000BB7D4FEAD313DBB2D318DAB27B7D03F0AD
:102DE0000303DBB24FEA4303DBB2D318DBB203F1D8
:102DF000020387F826303B7D4FEA9313DBB21A4675
:102E0000FB7C4FEA83039BB2D3189AB2BB7C03F0DE
:102E100003039BB24FEA83239BB2D3189BB203F107
:102E20000103FB83FA8B97F82630A3F1090302FA1A
:102E300003F23B681A604FF0000387F8273069E01F
:102E40003B684FF400721A804FF0000387F8273078
:102E500067E0FFF769FB0346FF2B5DD14FF00003EE
:102E600087F8273058E04FF049004FF00001FFF796
:102E700059FC0346002B51D1386A4FF01001FFF77F
:102E8000ADFB0346002B49D04FF0000387F82730F5
:102E900044E04FF04A004FF00001FFF743FC0346C7
:102EA000002B3DD1386A4FF01001FFF797FB034626
:102EB000002B35D04FF0000387F8273030E04FF07B
:102EC0007A004FF00001FFF72DFC0346002B1CD1C8
:102ED0004FF0000387F826300FE0FFF7E5FA0346CE
:102EE0001A463B6A1A703B6A03F101033B6297F88A
:102EF000263003F1010387F8263097F82630032B9C
:102F0000EBD94FF0000387F827304FF0040387F820
:102F1000273006E000BF04E000BF02E000BF00E091
:102F200000BFFFF791FAFFF7BFFA97F8273018466E
:102F300007F12C07BD4690BD80B400AF4FF4C043ED
:102F4000C3F621631846BD4680BC704780B487B085
:102F500000AF786039604FF000037B614FF00003F1
:102F60003B614FF00003FB604FF000037B6186E0A4
:102F70007B694FF0010202FA03F33B613B681A6878
:102F80003B691340FB60FA683B699A4273D17B68E6
:102F90001A687B694FEA43034FF0030101FA03F318
:102FA0006FEA03031A407B681A607B681A683B6803
:102FB0001B7919467B694FEA430301FA03F31A436D
:102FC0007B681A603B681B79012B03D03B681B7937
:102FD000022B34D17B689A687B694FEA43034FF038
:102FE000030101FA03F36FEA03031A407B689A6056
:102FF0007B689A683B685B7919467B694FEA4303B3
:1030000001FA03F31A437B689A607B685A687B690C
:103010009BB24FF0010101FA03F36FEA03031A4078
:103020007B685A607B685A683B689B7919467B6964
:103030009BB201FA03F39BB21A437B685A607B6828
:10304000DA687B699BB24FEA43034FF0030101FA50
:1030500003F36FEA03031A407B68DA607B68DA687F
:103060003B68DB7919467B694FEA430301FA03F3B6
:103070001A437B68DA607B6903F101037B617B693A
:103080000F2B7FF675AF07F11C07BD4680BC70475C
:1030900080B483B000AF78607B684FF6FF721A602F
:1030A0007B684FF000021A717B684FF000025A7182
:1030B0007B684FF000029A717B684FF00002DA7172
:1030C00007F10C07BD4680BC704700BF80B485B0D7
:1030D00000AF78600B467B804FF00003FB737B688A
:1030E0001A697B881340002B03D04FF00103FB7358
:1030F00002E04FF00003FB73FB7B184607F1140757
:10310000BD4680BC704700BF80B483B000AF78601C
:103110000B467B807B687A881A8307F10C07BD46D3
:1031200080BC704780B483B000AF78600B467B8072
:103130007B687A885A8307F10C07BD4680BC7047CC
:1031400080B483B000AF78600B467B807B685A699F
:103150007B885A407B685A6107F10C07BD4680BCEA
:10316000704700BF80B485B000AF786013460A4650
:103170007A807B704FF00003FB604FF00003BB6070
:103180007A787B8803F007034FEA830302FA03F39C
:10319000FB607B884FEAD3039BB21A467B884FEAD9
:1031A000D3039BB219467B6801F1080153F8211043
:1031B0007B8803F007034FEA83034FF00F0000FA08
:1031C00003F36FEA030319407B6802F1080243F836
:1031D00022107B884FEAD3039BB21A467B6802F128
:1031E000080253F82220FB681343BB607B884FEA38
:1031F000D3039BB21A467B6802F10802B96843F810
:10320000221007F11407BD4680BC704780B500AF9F
:103210004FF46053C4F202034FF46052C4F202024E
:10322000126842F001021A604FF46053C4F20203C4
:103230004FF000029A604FF46053C4F202034FF45F
:103240006052C4F20202126822F0847222F48032C8
:103250001A604FF46053C4F2020343F21002C2F248
:1032600000425A604FF46053C4F202034FF46052BC
:10327000C4F20202126822F480221A604FF46053F2
:10328000C4F202034FF00002DA6000F009F84FF4D4
:103290006D43CEF200034FF000629A6080BD00BF24
:1032A00080B483B000AF4FF000037B604FF00003A9
:1032B0003B604FF46053C4F202034FF46052C4F217
:1032C0000202126842F480321A604FF46053C4F272
:1032D00002031B6803F400333B607B6803F10103C6
:1032E0007B603B68002B03D17B68B3F5A06FECD10A
:1032F0004FF46053C4F202031B6803F40033002B45
:1033000003D04FF001033B6002E04FF000033B604D
:103310003B68012B40F082804FF46053C4F20203FB
:103320004FF46052C4F20202126C42F080521A64EE
:103330004FF4E043C4F200034FF4E042C4F2000251
:10334000126842F480421A604FF46053C4F20203E0
:103350004FF46052C4F2020292689A604FF46053D4
:10336000C4F202034FF46052C4F20202926842F4C3
:1033700000429A604FF46053C4F202034FF460526B
:10338000C4F20202926842F4A0529A604FF4605371
:10339000C4F2020345F20842C0F240725A604FF490
:1033A0006053C4F202034FF46052C4F20202126886
:1033B00042F080721A6000BF4FF46053C4F20203FF
:1033C0001B6803F00073002BF6D04FF47053C4F267
:1033D000020340F205621A604FF46053C4F2020324
:1033E0004FF46052C4F20202926822F003029A6023
:1033F0004FF46053C4F202034FF46052C4F202026D
:10340000926842F002029A6000BF4FF46053C4F227
:1034100002039B6803F00C03082BF6D107F10C079D
:10342000BD4680BC704700BF80B487B000AFF86075
:10343000B9607A60FB687B61BB683B610BE03B690C
:103440001A787B691A707B6903F101037B613B6920
:1034500003F101033B617B68002B0CBF00230123B8
:10346000DBB27A6802F1FF327A60002BE7D107F114
:103470001C07BD4680BC704780B487B000AFF860C1
:10348000B9607A60FB687B6107E0BB68DAB27B6990
:103490001A707B6903F101037B617B68002B0CBF11
:1034A00000230123DBB27A6802F1FF327A60002B3D
:1034B000EBD107F11C07BD4680BC704780B489B0D2
:1034C00000AFF860B9607A60FB68FB61BB68BB6104
:1034D0004FF000037B6100BF7B68002B0CBF002313
:1034E0000123DBB27A6802F1FF327A60002B16D03A
:1034F000FB691B781A46BB691B78D31A7B617B6911
:10350000002B14BF00230123DBB2FA6902F1010290
:10351000FA61BA6902F10102BA61002BDCD17B6960
:10352000184607F12407BD4680BC704780B483B0BD
:1035300000AF7860396003E07B6803F101037B60D2
:103540007B681B78002B05D07B681B781A463B688C
:103550009A42F1D17B681B78184607F10C07BD46EB
:1035600080BC704780B584B000AF786039607B68FC
:10357000DB6AFB60FA683B689A4255D07B681B792E
:10358000002B39D07B685A787B6803F130031046F2
:103590001946FA684FF00103FFF7D4FA0346002BEF
:1035A00002D04FF0010341E07B684FF000021A7136
:1035B0007B681A6A7B68DB69D218FB689A421BD960
:1035C0007B68DB78FB7214E07B68DB69FA68D318F0
:1035D000FB607B685A787B6803F13003104619461C
:1035E000FA684FF00103FFF7ADFAFB7A03F1FF33FE
:1035F000FB72FB7A012BE7D83B68002B14D07B6869
:103600005A787B6803F13003104619463A684FF048
:103610000103FFF721FA0346002B02D04FF001030C
:1036200004E07B683A68DA624FF00003184607F15D
:103630001007BD4680BD00BF80B584B000AF786084
:1036400078684FF00001FFF78DFF0346FB73FB7BAB
:10365000002B40F0AB807B681B78032B40F09780F9
:103660007B685B79002B00F092807B684FF0000252
:10367000DA627B6803F1300318464FF000014FF423
:103680000072FFF7F9FE7B684FF0550283F82E2297
:103690007B684FF0AA0283F82F227B684FF052021A
:1036A00083F830207B684FF0520283F831207B682A
:1036B0004FF0610283F832207B684FF0410283F8BB
:1036C00033207B684FF0720283F814227B684FF03E
:1036D000720283F815227B684FF0410283F81622AC
:1036E0007B684FF0610283F817227B681B69DAB2AE
:1036F0007B6883F818227B681B699BB24FEA13230F
:103700009BB2DAB27B6883F819227B681B694FEAA7
:103710001343DAB27B6883F81A227B681B694FEA8D
:103720001363DAB27B6883F81B227B68DB68DAB24A
:103730007B6883F81C227B68DB689BB24FEA13230B
:103740009BB2DAB27B6883F81D227B68DB684FEAA4
:103750001343DAB27B6883F81E227B68DB684FEA8A
:103760001363DAB27B6883F81F227B6859787B6821
:1037700003F130027B685B69084611461A464FF038
:103780000103FFF7DFF97B684FF000025A717B6895
:103790005B7818464FF000014FF00002FFF770FA17
:1037A0000346002B02D04FF00103FB73FB7B18464E
:1037B00007F11007BD4680BD80B483B000AF7860CC
:1037C00039603B68A3F102033B607B689B69A3F10E
:1037D00002023B689A4202D84FF0000307E07B6880
:1037E0009B783A6802FB03F27B689B6AD318184601
:1037F00007F10C07BD4680BC704700BF80B586B09E
:1038000000AF786039603B68012B04D97B689A6906
:103810003B689A4202D84FF00103B8E07B681B78FE
:10382000022B52D0032B76D0012B40F0AE803B68A8
:103830007B617B694FEA53037A69D3187B617B68AC
:103840001A6A7B694FEA5323D31878681946FFF741
:1038500089FE0346002B40F091807B694FEAC353F9
:103860004FEAD3537A68D31893F830303B617B69C1
:1038700003F101037B617B681A6A7B694FEA53237A
:10388000D31878681946FFF76DFE0346002B77D1F1
:103890007B694FEAC3534FEAD3537A68D31893F83E
:1038A00030304FEA03233A6913433B613B6803F02E
:1038B0000103002B03D03B694FEA131304E03B697B
:1038C0004FEA03534FEA135361E07B681A6A3B687F
:1038D0004FEA1323D31878681946FFF743FE0346CF
:1038E000002B4FD13B684FEA43034FEAC3534FEAE3
:1038F000D35303F130037A68D318FB60FB6803F1FC
:1039000001031B784FEA03239AB2FB681B78134329
:103910009BB29BB23BE07B681A6A3B684FEAD313C9
:10392000D31878681946FFF71DFE0346002B2BD1EC
:103930003B684FEA83034FEAC3534FEAD35303F183
:1039400030037A68D318FB60FB6803F103031B782C
:103950004FEA0362FB6803F102031B784FEA03435B
:103960001A43FB6803F101031B784FEA03231A4350
:10397000FB681B78134323F0704308E000BF04E0AA
:1039800000BF02E000BF00E000BF4FF0FF33184669
:1039900007F11807BD4680BD80B588B000AFF8605C
:1039A000B9607A60BB68012B04D9FB689A69BB686F
:1039B0009A4203D84FF00203FB7711E1FB681B78B2
:1039C000022B7ED0032B00F0A680012B40F0F98063
:1039D000BB68BB61BB694FEA5303BA69D318BB61CB
:1039E000FB681A6ABB694FEA5323D318F868194673
:1039F000FFF7B8FD0346FB77FB7F002B40F0E58027
:103A0000BB694FEAC3534FEAD35303F13003FA685B
:103A1000D3187B61BB6803F00103002B0ED07B69D8
:103A20001B78DBB203F00F03DAB27B68DBB24FEA3C
:103A30000313DBB21343DBB2DBB201E07B68DBB222
:103A40007A691370BB6903F10103BB61FB684FF036
:103A500001021A71FB681A6ABB694FEA5323D31833
:103A6000F8681946FFF77EFD0346FB77FB7F002BC6
:103A700040F0AD80BB694FEAC3534FEAD35303F123
:103A80003003FA68D3187B61BB6803F00103002B95
:103A900004D07B684FEA1313DBB20FE07B691B781D
:103AA000DBB223F00F03DAB27B684FEA1323DBB2F9
:103AB00003F00F03DBB21343DBB2DBB27A6913709E
:103AC0008AE0FB681A6ABB684FEA1323D318F868C8
:103AD0001946FFF747FD0346FB77FB7F002B78D1A4
:103AE000BB684FEA43034FEAC3534FEAD35303F192
:103AF0003003FA68D3187B617B68DAB27B691A708D
:103B00007B6903F101037A6892B24FEA122292B202
:103B1000D2B21A7060E0FB681A6ABB684FEAD3132E
:103B2000D318F8681946FFF71DFD0346FB77FB7FA6
:103B3000002B50D1BB684FEA83034FEAC3534FEACF
:103B4000D35303F13003FA68D3187B617B6903F127
:103B500003031B784FEA03627B6903F102031B78BE
:103B60004FEA03431A437B6903F101031B784FEAD1
:103B700003231A437B691B78134303F070437A686D
:103B800013437B607B68DAB27B691A707B6903F14F
:103B900001037A6892B24FEA122292B2D2B21A703C
:103BA0007B6903F102037A684FEA1242D2B21A70BB
:103BB0007B6903F103037A684FEA1262D2B21A708A
:103BC0000AE04FF00203FB7706E000BF04E000BF0D
:103BD00002E000BF00E000BFFB684FF001021A7175
:103BE000FB7F184607F12007BD4680BD80B584B035
:103BF00000AF786039603B68012B04D97B689A6913
:103C00003B689A4203D84FF00203FB733FE04FF04A
:103C10000003FB7332E078683968FFF7EFFDB860A6
:103C2000BB68002B30D0BB68012B03D14FF00203DF
:103C3000FB732CE0BB68B3F1FF3F03D14FF00103EE
:103C4000FB7324E0786839684FF00002FFF7A4FEA8
:103C50000346FB73FB7B002B18D17B681B69B3F118
:103C6000FF3F09D07B681B6903F101027B681A6181
:103C70007B684FF001025A71BB683B607B689A69B0
:103C80003B689A42C7D802E000BF00E000BFFB7B60
:103C9000184607F11007BD4680BD00BF80B586B04D
:103CA00000AF786039603B68002B0ED17B68DB6821
:103CB0003B613B69002B04D07B689A693B699A425F
:103CC00017D84FF001033B6113E078683968FFF7BC
:103CD00095FDB860BB68012B02D84FF001036DE081
:103CE0007B689A69BB689A4201D9BB6866E03B6809
:103CF0003B613B697B6100E000BF7B6903F101032D
:103D00007B617B689A697B699A4209D84FF002030C
:103D10007B617A693B699A4202D94FF000034DE01A
:103D200078687969FFF76AFDB860BB68002B0FD02F
:103D3000BB68B3F1FF3F02D0BB68012B01D1BB6868
:103D40003CE07A693B699A42D6D14FF0000335E0F6
:103D500000BF786879696FF07042FFF71DFE034677
:103D6000FB73FB7B002B09D13B68002B06D07868E6
:103D700039687A69FFF710FE0346FB73FB7B002B63
:103D800012D17B687A69DA607B681B69B3F1FF3F07
:103D900013D07B681B6903F1FF327B681A617B6873
:103DA0004FF001025A7108E0FB7B012B02D14FF06A
:103DB000FF3301E04FF001037B617B69184607F197
:103DC0001807BD4680BD00BF80B584B000AF7860E5
:103DD0000B467B807B687A88DA807B689B68FB6017
:103DE000FB68012B05D07B681B689A69FB689A42C7
:103DF00002D84FF002036DE0FB68002B08D17B680E
:103E00001B681B78032B03D17B681B685B6AFB6014
:103E1000FB68002B16D17B68FA68DA607B681B6848
:103E20001B897A889A4202D34FF0020352E07B68E2
:103E30001B685A6A7B884FEA13139BB2D2187B68BF
:103E40001A6139E07B681B689B784FEA03137B811A
:103E50001DE07B681B681846F968FFF7CFFCF86027
:103E6000FB68B3F1FF3F02D14FF0010332E0FB6882
:103E7000012B05D97B681B689A69FB689A4202D8B6
:103E80004FF0020326E07A887B89D31A7B807A88F8
:103E90007B899A42DDD27B68FA68DA607B681B68AE
:103EA0001846F968FFF788FC02467B884FEA13132F
:103EB0009BB2D2187B681A617B681A687B8803F012
:103EC0000F034FEA431303F13003D2187B685A61A2
:103ED0004FF00003184607F11007BD4680BD00BF34
:103EE00090B585B000AF786039607B68DB8803F1FE
:103EF00001033B813B89002B03D07B681B69002BAE
:103F000002D14FF00403D3E03B8903F00F039BB2CF
:103F1000002B40F0BC807B681B6903F101027B68C9
:103F20001A617B68DB68002B09D17B681B681B89E1
:103F30003A899A42C0F0AB804FF00403B8E03B8965
:103F40004FEA13139BB21A467B681B689B7803F1F8
:103F5000FF331340002B40F09A807B681A687B681F
:103F6000DB6810461946FFF749FCF860FB68012B37
:103F700002D84FF002039BE0FB68B3F1FF3F02D190
:103F80004FF0010394E07B681B689A69FB689A42D2
:103F900071D83B68002B02D14FF0040388E07B68A6
:103FA0001A687B68DB6810461946FFF777FEF860F1
:103FB000FB68002B02D14FF0070379E0FB68012B6F
:103FC00002D14FF0020373E0FB68B3F1FF3F02D16F
:103FD0004FF001036CE07B681B6818464FF000014E
:103FE000FFF7C0FA0346002B02D04FF001035FE059
:103FF0007B681B6803F1300318464FF000014FF453
:104000000072FFF739FA7B681C687B681B681846EA
:10401000F968FFF7D1FB0346E3624FF00003FB7240
:104020001BE07B681B684FF001021A717B681B68FC
:1040300018464FF00001FFF795FA0346002B02D017
:104040004FF0010334E07B681B68DA6A02F1010279
:10405000DA62FB7A03F10103FB727B681B689B78D1
:10406000FA7A9A42DDD37B681B687A681268D16A53
:10407000FA7A8A1ADA627B68FA68DA607B681B6807
:104080001846F968FFF798FB02467B681A617B685F
:104090003A89DA807B681A683B8903F00F034FEA9C
:1040A000431303F13003D2187B685A614FF00003C9
:1040B000184607F11407BD4690BD00BF80B586B015
:1040C00000AF786078684FF00001FFF77DFE03468F
:1040D000FB75FB7D002B01D0FB7D3BE07B681A6804
:1040E0007B681B6910461946FFF73CFA0346FB75CF
:1040F000FB7D002B2AD17B685B693B613B691B78A8
:10410000FB73FB7B002B03D14FF00403FB7520E016
:104110003B6903F10B031B7803F00803002B0AD162
:104120007B689B69386919464FF00B02FFF7C6F9A7
:104130000346002B0CD078684FF00001FFF7D0FE4B
:104140000346FB75FB7D002BC8D002E000BF00E0FA
:1041500000BFFB7D184607F11807BD4680BD00BFB4
:1041600080B584B000AF786078684FF00001FFF749
:104170002BFE0346FB73FB7B002B22D17B681A6866
:104180007B681B6910461946FFF7ECF90346FB7381
:10419000FB7B002B14D17B685B691B78BB73BB7BFB
:1041A000E52B0ED0BB7B002B0BD078684FF00101C4
:1041B000FFF796FE0346FB73FB7B002BDED000E08F
:1041C00000BFFB7B002B23D17B681A687B681B69CF
:1041D00010461946FFF7C6F90346FB73FB7B002B1D
:1041E00016D17B685B69BB60B8684FF000014FF087
:1041F0002002FFF741F97B689B69B86819464FF0C8
:104200000B02FFF711F97B681B684FF001021A716E
:10421000FB7B184607F11007BD4680BD80B588B00E
:1042200000AF786039607B689B69FB60F8684FF08D
:1042300020014FF00B02FFF71FF94FF00003FB774F
:104240004FF000033B613B697B614FF00803BB61AA
:104250003B681B68BB60BA687B69D3181B78BB7767
:104260007B6903F101037B61BB7F202B63D9BB7F9B
:104270002F2B60D0BB7F5C2B5DD0BB7F2E2B03D060
:104280003A69BB699A4214D3BB69082B02D1BB7F40
:104290002E2B02D04FF0060389E04FF008033B615C
:1042A0004FF00B03BB61FB7F4FEA8303FB7700BF3B
:1042B000D1E7BB7F5BB2002B0CDAFB7F43F003033B
:1042C000FB77BB7FA3F1800246F2A053C0F6000348
:1042D0009B5CBB77BB7F46F29050C0F6000019464E
:1042E000FFF724F90346002B02D04FF006035EE0EF
:1042F000BB7F402B07D9BB7F5A2B04D8FB7F43F0F1
:104300000203FB770DE0BB7F602B0AD9BB7F7A2BC2
:1043100007D8FB7F43F00103FB77BB7FA3F12003AA
:10432000BB77FA683B69D318BA7F1A703B6903F10F
:1043300001033B618FE7BA687B69D2183B681A605A
:10434000BB7F202B02D84FF0040301E04FF00003A5
:10435000BB773B69002B02D14FF0060327E0FB68D7
:104360001B78E52B03D1FB684FF005021A70BB697F
:10437000082B03D1FB7F4FEA8303FB77FB7F03F01E
:104380000303012B03D1BB7F43F01003BB77FB7FFB
:1043900003F00C03042B03D1BB7F43F00803BB776E
:1043A000FB6803F10B03BA7F1A704FF00003184645
:1043B00007F12007BD4680BD80B584B000AF7860AE
:1043C00039603B681B782F2B03D03B681B785C2B34
:1043D00003D13B6803F101033B607B684FF00002AF
:1043E0009A603B681B781F2B0BD878684FF0000150
:1043F000FFF7EAFC0346FB737B684FF000025A614B
:104400005EE03B4678681946FFF708FF0346FB73FA
:10441000FB7B002B4DD17868FFF750FE0346FB7302
:104420007B689B69DB7ABB73FB7B002B0BD0FB7B30
:10443000042B40D1BB7B03F00403002B3DD14FF094
:104440000503FB7339E0BB7B03F00403002B36D17B
:104450007B685B69BB60BB6803F10B031B7803F0EF
:104460001003002B03D14FF00503FB7328E0BB685A
:1044700003F115031B784FEA03239AB2BB6803F1DB
:1044800014031B7813439BB29BB24FEA0342BB68F1
:1044900003F11B031B784FEA032399B2BB6803F1B6
:1044A0001A031B780B439BB29BB21A437B689A603A
:1044B000A7E700BF04E000BF02E000BF00E000BFCC
:1044C000FB7B184607F11007BD4680BD80B582B062
:1044D00000AF786039607B685A787B6803F13003FD
:1044E000104619463A684FF00103FEF7B5FA034645
:1044F000002B02D04FF0030356E07B6893F82F3275
:104500004FEA03239AB27B6893F82E3213439BB28F
:104510001AB24AF65523CFF6FF739A4202D04FF0F3
:10452000020341E07B6893F869304FEA03627B68DD
:1045300093F868304FEA03431A437B6893F8673077
:104540004FEA03231A437B6893F86630134323F042
:104550007F4244F24613C0F254039A4202D14FF014
:10456000000321E07B6893F885304FEA03627B68A3
:1045700093F884304FEA03431A437B6893F88330FF
:104580004FEA03231A437B6893F88230134323F0E6
:104590007F4244F24613C0F254039A4202D14FF0D4
:1045A000000301E04FF00103184607F10807BD467C
:1045B00080BD00BF80B592B000AFF860B96013460F
:1045C000FB71FB681B68FB62FB6A1B78A3F130037D
:1045D0003B643B6C092B0DD8FB6A03F101031B788C
:1045E0003A2B07D1FB6A03F10203FB62FB68FA6A0C
:1045F0001A6002E04FF000033B643B6C002B02D0DA
:104600004FF00B03B8E240F22003C2F200033A6C11
:1046100053F82230BB62BB68BA6A1A60BB6A002BCF
:1046200002D14FF00C03A7E2BB6A1B78002B1CD011
:10463000BB6A5B781846FEF7F7F9034687F8273020
:1046400097F8273003F00103002B0ED1FB79002BE4
:1046500008D097F8273003F00403002B02D04FF066
:104660000A0389E24FF0000386E2BB6A4FF00002C2
:104670001A703B6CDAB2BB6A5A70BB6A5B78184638
:10468000FEF7ACF8034687F8273097F8273003F099
:104690000103002B02D04FF003036DE2FB79002BE6
:1046A00008D097F8273003F00403002B02D04FF016
:1046B0000A0361E24FF00003FB63B86AF96BFFF78E
:1046C00005FF034687F8473097F84730012B2AD17A
:1046D000BB6A03F5F7733B623B6A03F104031B7883
:1046E000002B20D03B6A03F10B031B784FEA0362D7
:1046F0003B6A03F10A031B784FEA03431A433B6A00
:1047000003F109031B784FEA03231A433B6A03F1C1
:1047100008031B781343FB63B86AF96BFFF7D6FEF7
:10472000034687F8473097F84730032B02D14FF004
:10473000010321E297F84730002B02D04FF00D0320
:104740001AE2BB6A93F83C304FEA03239AB2BB6A81
:1047500093F83B3013439BB21BB2B3F5007F02D0FA
:104760004FF00D0308E2BB6A93F847304FEA03238A
:104770009AB2BB6A93F8463013439BB29BB2BB63B9
:10478000BB6B002B15D1BB6A93F857304FEA03621D
:10479000BB6A93F856304FEA03431A43BB6A93F857
:1047A00055304FEA03231A43BB6A93F8543013433E
:1047B000BB63BB6ABA6BDA61BB6A93F84030FB77C4
:1047C000BB6AFA7FDA70FB7F012B05D0FB7F022BDF
:1047D00002D04FF00D03CFE1FA7FBB6B02FB03F376
:1047E000BB63BB6A93F83D30FB77BB6AFA7F9A7074
:1047F000FB7F002B06D0FA7FFB7F03F1FF331340D2
:10480000002B02D04FF00D03B6E1BB6A93F84230A3
:104810004FEA03239AB2BB6A93F8413013439BB229
:104820009AB2BB6A1A81BB6A1B8903F00F039BB261
:10483000002B02D04FF00D039EE1BB6A93F8443089
:104840004FEA03239AB2BB6A93F8433013439BB2F7
:104850009BB27B637B6B002B15D1BB6A93F8533003
:104860004FEA0362BB6A93F852304FEA03431A439C
:10487000BB6A93F851304FEA03231A43BB6A93F89B
:10488000503013437B63BB6A93F83F304FEA0323F6
:104890009AB2BB6A93F83E3013439BB2BB83BB8B87
:1048A000002B02D14FF00D0366E1BA8BBB6BD2181F
:1048B000BB6A1B894FEA13139BB2D318BB617A6B97
:1048C000BB699A4202D24FF00D0355E17A6BBB6986
:1048D000D21ABB6A9B78B2FBF3F37B617B69002B36
:1048E00002D14FF00D0347E14FF0010387F8473045
:1048F0007A6940F6F5739A4203D94FF0020387F8BC
:1049000047307A694FF6F5739A4203D94FF00303A3
:1049100087F847307B6903F10202BB6A9A61FA6B40
:10492000BB69D218BB6A9A62BA8BFB6BD218BB6A9E
:104930001A6297F84730032B23D1BB6A1B89002BDF
:1049400002D04FF00D0317E1BB6A93F85F304FEAD6
:104950000362BB6A93F85E304FEA03431A43BB6AB3
:1049600093F85D304FEA03231A43BB6A93F85C3037
:104970001A43BB6A5A62BB6A9B694FEA83033B6373
:1049800023E0BB6A1B89002B02D14FF00D03F3E03B
:10499000BB6A1A6ABB6BD218BB6A5A6297F8473077
:1049A000022B04D1BB6A9B694FEA43030CE0BB6A4C
:1049B0009A6913464FEA43039B184FEA5302BB6AB6
:1049C0009B6903F00103D3183B63BB6ADA693B6B55
:1049D00003F2FF134FEA53239A4202D24FF00D0322
:1049E000CAE0BB6A4FF0FF321A61BB6A4FF00002A7
:1049F000DA6097F84730032B40F09C80BB6A4FF099
:104A000000025A71BB6A93F861304FEA03239AB2ED
:104A1000BB6A93F8603013439BB29BB21A46FB6BA0
:104A2000D218BB6A5A61BB6A5978BB6A03F130027B
:104A3000BB6A5B69084611461A464FF00103FEF750
:104A40000BF80346002B75D1BB6A93F82F324FEA5F
:104A500003239AB2BB6A93F82E3213439BB21AB265
:104A60004AF65523CFF6FF739A4263D1BB6A93F897
:104A700033304FEA0362BB6A93F832304FEA0343A4
:104A80001A43BB6A93F831304FEA03231A43BB6AD7
:104A900093F830301A4345F25223C4F261139A421C
:104AA00048D1BB6A93F817324FEA0362BB6A93F8A6
:104AB00016324FEA03431A43BB6A93F815324FEAA2
:104AC00003231A43BB6A93F814321A4347F2722342
:104AD000C6F241139A422DD1BB6A93F81F324FEAB6
:104AE0000362BB6A93F81E324FEA03431A43BB6A60
:104AF00093F81D324FEA03231A43BB6A93F81C3222
:104B00001A43BB6ADA60BB6A93F81B324FEA03624E
:104B1000BB6A93F81A324FEA03431A43BB6A93F80D
:104B200019324FEA03231A43BB6A93F818321A4327
:104B3000BB6A1A61BB6A97F847201A7040F22403D7
:104B4000C2F200031B8803F101039AB240F224036E
:104B5000C2F200031A8040F22403C2F200031A8852
:104B6000BB6ADA80BB6A4FF00002DA62BB6A4FF0C0
:104B700000021A714FF00003184607F14807BD46BE
:104B800080BD00BF80B582B000AF78600B467B80EF
:104B90007B68002B08D07B681B78002B04D07B68D7
:104BA000DB887A889A4202D04FF009030EE07B68D6
:104BB0005B781846FDF738FF034603F00103002B2E
:104BC00002D04FF0030301E04FF00003184607F155
:104BD0000807BD4680BD00BF80B485B000AF034666
:104BE0003960FB71FB79002B02D04FF00B031FE003
:104BF000FA7940F22003C2F2000353F82230FB603E
:104C0000FB68002B03D0FB684FF000021A703B6872
:104C1000002B03D03B684FF000021A70FA7940F283
:104C20002003C2F20003396843F822104FF000035A
:104C3000184607F11407BD4680BC704780B592B096
:104C400000AFF860B9601346FB71FB684FF00002DB
:104C50001A60FB7903F01F03FB71FB7923F001035A
:104C6000DBB207F1080107F11C02084611461A469B
:104C7000FFF7A0FC034687F8473007F110037B637A
:104C800097F84730002B09D1BB6807F11C0210468A
:104C90001946FFF791FB034687F847303B6B3B64AF
:104CA00097F84730002B06D13B6C002B03D14FF017
:104CB000060387F84730FB7903F01C03002B00F054
:104CC000D58097F84730002B12D097F84730042B47
:104CD00007D107F11C031846FFF742FA034687F88D
:104CE0004730FB7943F00803FB713B6B3B6415E0F5
:104CF000FB7903F00403002B04D04FF0080387F87E
:104D000047300BE03B6C03F10B031B7803F01103FE
:104D1000002B03D04FF0070387F8473097F8473050
:104D2000002B40F0C580FB7903F00803002B00F056
:104D3000BF80FEF701F9F8633B6C03F10E03FA6BD9
:104D4000D2B21A703B6C03F10F03FA6B92B24FEAC6
:104D5000122292B2D2B21A703B6C03F11003FA6BBA
:104D60004FEA1242D2B21A703B6C03F11103FA6B94
:104D70004FEA1262D2B21A703B6C03F10B034FF090
:104D800000021A703B6C03F11C034FF000021A7012
:104D90003B6C03F11D034FF000021A703B6C03F1F2
:104DA0001E034FF000021A703B6C03F11F034FF01B
:104DB00000021A703B6C03F115031B784FEA0323C2
:104DC0009AB23B6C03F114031B7813439BB29BB262
:104DD0004FEA03423B6C03F11B031B784FEA0323AA
:104DE00099B23B6C03F11A031B780B439BB29BB245
:104DF0001343BB633B6C03F11A034FF000021A70BC
:104E00003B6C03F11B034FF000021A703B6C03F183
:104E100014034FF000021A703B6C03F115034FF0BE
:104E200000021A70FB694FF001021A71BB6B002B74
:104E30003ED0FB69DB6AFB63FB691846B96BFEF782
:104E4000D5FE034687F8473097F84730002B2FD11F
:104E5000FB69BA6B02F1FF32DA60FB691846F96B45
:104E6000FEF780FB034687F8473021E097F847308C
:104E7000002B1DD13B6C03F10B031B7803F01003D7
:104E8000002B04D04FF0040387F8473010E0FB7983
:104E900003F00203002B0BD03B6C03F10B031B78D8
:104EA00003F00103002B03D04FF0070387F84730CE
:104EB00097F84730002B0FD1FB7903F00803002B44
:104EC00003D0FB7943F02003FB71FB69DA6AFB68CE
:104ED000DA61FB683A6C1A6297F84730002B4DD1C3
:104EE000FB68FA799A713B6C03F115031B784FEA62
:104EF00003239AB23B6C03F114031B7813439BB258
:104F00009BB24FEA03423B6C03F11B031B784FEA51
:104F1000032399B23B6C03F11A031B780B439BB23A
:104F20009BB21A43FB681A613B6C03F11F031B78A9
:104F30004FEA03623B6C03F11E031B784FEA034305
:104F40001A433B6C03F11D031B784FEA03231A43FA
:104F50003B6C03F11C031B781A43FB68DA60FB68A7
:104F60004FF000029A60FB684FF000029A61FA6904
:104F7000FB681A60FB69DA88FB689A8097F847300B
:104F8000184607F14807BD4680BD00BF80B58CB00C
:104F900000AFF860B9607A603B60BB687B623B68D9
:104FA0004FF000021A60FB681A68FB689B88104685
:104FB0001946FFF7E7FD034687F8233097F82330BB
:104FC000002B02D097F8233056E1FB689B79DBB2C7
:104FD0005BB2002B02DA4FF002034DE1FB689B79D4
:104FE00003F00103002B02D14FF0070344E1FB68FB
:104FF000DA68FB689B68D31AFB617A68FB699A429E
:1050000040F23481FB697B6030E1FB689B684FEACA
:10501000C3534FEAD353002B40F0F480FB689B68E6
:105020004FEA5323DAB2FB681B689B7803F1FF3326
:10503000DBB21340FB76FB7E002B2ED1FB689B6816
:10504000002B02D1FB681B6908E0FB681A68FB684B
:105050005B6910461946FEF7D1FB03467B617B690D
:10506000012B09D8FB689B7963F07F03DAB2FB68F8
:105070009A714FF00203FFE07B69B3F1FF3F09D162
:10508000FB689B7963F07F03DAB2FB689A714FF09B
:105090000103F1E0FB687A695A61FB681A68FB68F2
:1050A0005B6910461946FEF787FB38613B69002BA8
:1050B00009D1FB689B7963F07F03DAB2FB689A71D0
:1050C0004FF00203D8E0FB7E3A69D3183B617B685E
:1050D0004FEA5323BB62BB6A002B48D0FA7EBB6AFF
:1050E000D218FB681B689B789A4206D9FB681B683C
:1050F0009B781A46FB7ED31ABB62FB681B685A7802
:10510000BB6ADBB21046796A3A69FDF7A5FC034633
:10511000002B09D0FB689B7963F07F03DAB2FB6850
:105120009A714FF00103A7E0FB689B7903F04003FD
:10513000002B17D0FB689A693B69D21ABB6A9A4266
:1051400010D2FB689A693B69D31A4FEA43237A6A03
:10515000D218FB6803F12403104619464FF400727D
:10516000FEF762F9BB6A4FEA4323FB626AE0FB6821
:105170009B7903F04003002B22D0FB681B68597811
:10518000FB6803F12402FB689B69084611461A4636
:105190004FF00103FDF7D6FC0346002B09D0FB6856
:1051A0009B7963F07F03DAB2FB689A714FF00103D9
:1051B00062E0FB689B7923F04003DAB2FB689A71E6
:1051C000FB689A693B699A4219D0FB681B685A7858
:1051D000FB6803F12403104619463A694FF00103B6
:1051E000FDF73AFC0346002B09D0FB689B7963F07E
:1051F0007F03DAB2FB689A714FF001033CE0FB6871
:105200003A699A61FB689B684FEAC3534FEAD353EC
:10521000C3F50073FB62FA6A7B689A4201D97B6826
:10522000FB62FB689B684FEAC3534FEAD35303F119
:105230002003FA68D31803F10403786A1946FA6A5E
:10524000FEF7F2F87A6AFB6AD3187B62FB689A6809
:10525000FB6AD218FB689A603B681A68FB6AD2182E
:105260003B681A607A68FB6AD31A7B607B68002B04
:105270007FF4CBAE4FF00003184607F13007BD4670
:1052800080BD00BF80B58AB000AFF860B9607A60B9
:105290003B60BB68BB613B684FF000021A60FB6873
:1052A0001A68FB689B8810461946FFF76BFC03469B
:1052B000FB75FB7D002B01D0FB7D88E1FB689B79B2
:1052C000DBB25BB2002B02DA4FF002037FE1FB6836
:1052D0009B7903F00203002B02D14FF0070376E124
:1052E000FB68DA687B68D218FB68DB689A4280F05A
:1052F00055814FF000037B6050E1FB689B684FEAEB
:10530000C3534FEAD353002B40F00D81FB689B68D9
:105310004FEA5323DAB2FB681B689B7803F1FF3333
:10532000DBB21340BB75BB7D002B40D1FB689B6893
:10533000002B11D1FB681B697B627B6A002B14D1A7
:10534000FB681B6818464FF00001FEF7A7FC786267
:10535000FB687A6A1A6108E0FB681A68FB685B6997
:1053600010461946FEF79AFC78627B6A002B00F023
:105370001A817B6A012B09D1FB689B7963F07F035B
:10538000DAB2FB689A714FF0020320E17B6AB3F155
:10539000FF3F09D1FB689B7963F07F03DAB2FB68BA
:1053A0009A714FF0010312E1FB687A6A5A61FB6857
:1053B0009B7903F04003002B22D0FB681B685978CF
:1053C000FB6803F12402FB689B69084611461A46F4
:1053D0004FF00103FDF7B6FB0346002B09D0FB6835
:1053E0009B7963F07F03DAB2FB689A714FF0010397
:1053F000EDE0FB689B7923F04003DAB2FB689A7119
:10540000FB681A68FB685B6910461946FEF7D4F919
:1054100038613B69002B09D1FB689B7963F07F03FE
:10542000DAB2FB689A714FF00203D0E0BB7D3A69B3
:10543000D3183B617B684FEA5323FB61FB69002B68
:1054400049D0BA7DFB69D218FB681B689B789A42E9
:1054500006D9FB681B689B781A46BB7DD31AFB6193
:10546000FB681B685A78FB69DBB21046B9693A6978
:10547000FDF768FB0346002B09D0FB689B7963F0BE
:105480007F03DAB2FB689A714FF001039FE0FB687B
:105490009A693B69D21AFB699A4217D2FB6803F1F9
:1054A0002402FB6899693B69CB1A4FEA4323B96927
:1054B000CB18104619464FF40072FDF7B5FFFB6894
:1054C0009B7923F04003DAB2FB689A71FB694FEADB
:1054D00043233B624EE0FB689A693B699A421FD0C6
:1054E000FB689A68FB68DB689A4219D2FB681B6804
:1054F0005A78FB6803F12403104619463A694FF0C5
:105500000103FDF7A9FA0346002B09D0FB689B793C
:1055100063F07F03DAB2FB689A714FF0010356E043
:10552000FB683A699A61FB689B684FEAC3534FEA8C
:10553000D353C3F500733B623A6A7B689A4201D940
:105540007B683B62FB689B684FEAC3534FEAD353C7
:1055500003F12003FA68D31803F104031846B9696C
:105560003A6AFDF761FFFB689B7943F04003DAB2CA
:10557000FB689A71BA693B6AD318BB61FB689A6889
:105580003B6AD218FB689A603B681A683B6AD2187B
:105590003B681A607A683B6AD31A7B607B68002B91
:1055A0007FF4ABAE00E000BFFB689A68FB68DB6885
:1055B0009A4203D9FB689A68FB68DA60FB689B79BA
:1055C00043F02003DAB2FB689A714FF000031846EB
:1055D00007F12807BD4680BD80B586B000AF786072
:1055E0007B681A687B689B8810461946FFF7CAFAE1
:1055F0000346FB75FB7D002B40F0C7807B689B79E1
:1056000003F02003002B00F0C0807B689B7903F03F
:105610004003002B1BD07B681B6859787B6803F123
:1056200024027B689B69084611461A464FF0010325
:10563000FDF788FA0346002B02D04FF00103A5E0E6
:105640007B689B7923F04003DAB27B689A717B68B0
:105650001A687B68DB6910461946FDF783FF03462D
:10566000FB75FB7D002B40F090807B681B6A3B61E3
:105670003B6903F10B033A6902F10B02127842F025
:105680002002D2B21A703B6903F11C037A68D26817
:10569000D2B21A703B6903F11D037A68D26892B2E4
:1056A0004FEA122292B2D2B21A703B6903F11E0382
:1056B0007A68D2684FEA1242D2B21A703B6903F19B
:1056C0001F037A68D2684FEA1262D2B21A703B693D
:1056D00003F11A037A681269D2B21A703B6903F1B6
:1056E0001B037A68126992B24FEA122292B2D2B2C6
:1056F0001A703B6903F114037A6812694FEA124287
:10570000D2B21A703B6903F115037A6812694FEA45
:10571000124292B24FEA122292B2D2B21A70FDF73E
:105720000BFCF8603B6903F11603FA68D2B21A70F9
:105730003B6903F11703FA6892B24FEA122292B260
:10574000D2B21A703B6903F11803FA684FEA1242A9
:10575000D2B21A703B6903F11903FA684FEA126278
:10576000D2B21A707B689B7923F02003DAB27B688F
:105770009A717B681B684FF001021A717B681B6885
:105780001846FDF759FF0346FB75FB7D184607F1E8
:105790001807BD4680BD00BF80B584B000AF7860FB
:1057A0007868FFF719FF0346FB73FB7B002B03D1DF
:1057B0007B684FF000021A60FB7B184607F1100768
:1057C000BD4680BD80B582B000AF78607A684FF486
:1057D0004053C4F201039A420CD14FF480504FF071
:1057E0000101FBF75DF84FF480504FF00001FBF72B
:1057F00057F826E07A684FF46053C4F200039A42E7
:105800000CD14FF480404FF00101FBF71FF84FF42B
:1058100080404FF00001FBF719F812E07A684FF46E
:105820007053C4F200039A420BD14FF400404FF082
:105830000101FBF70BF84FF400404FF00001FBF7BC
:1058400005F807F10807BD4680BD00BF80B485B0EC
:1058500000AF786039604FF00003FB817B681B88E4
:10586000FB81FB8903F44153FB813B681A883B6849
:105870005B8813439AB23B689B8813439AB23B6898
:10588000DB8813439AB23B681B8913439AB23B6887
:105890005B8913439AB23B689B8913439AB23B6876
:1058A000DB8913439AB2FB891343FB817B68FA8936
:1058B0001A807B689B8B9BB223F400639AB27B684F
:1058C0009A833B681A8A7B681A8207F11407BD46DF
:1058D00080BC704780B48BB000AF786039604FF007
:1058E00000037B834FF00203FB844FF00003BB8473
:1058F0004FF001037B844FF00003FB614FF0000386
:105900007B614FF000033B614FF00003FB604FF001
:105910000003BB607B689B8B9BB223F47B6323F00B
:105920000F039AB27B689A837B684FF002021A8455
:105930007B689B8B7B833B689B68022B06D14FF077
:105940000003BB844FF00203FB849AE03B689B8812
:10595000002B03D14FF001037B8402E04FF00203E0
:105960007B844FF46053C4F202039B6803F400038A
:10597000002B0BD04FF46053C4F202034FF460527B
:10598000C4F20202926822F400029A604FF460535B
:10599000C4F20203D3F8842047F6C07313404FEAE1
:1059A00093134FEAC3534FEAD353FB604FF4605352
:1059B000C4F20203D3F8843003F0E0434FEA1373D8
:1059C00003F00703BB604FF46053C4F202035B684B
:1059D00003F03F033B614FF49053C0F27A033A69FE
:1059E000B3FBF2F3FA6802FB03F2BB68B2FBF3F31A
:1059F0007B613B68DB88B3F5007F13D17B694FEA9D
:105A0000132213464FEA83039B184FEA43031A46B7
:105A10003B689B68B2FBF3F39BB203F105039BB2B7
:105A2000FB6115E07B8C4FEA43137A69B2FBF3F21A
:105A300013464FEA83039B184FEA43031A463B6819
:105A40009B68B2FBF3F39BB203F105039BB2FB61CE
:105A5000FA694CF6CD43CCF6CC43A3FB02134FEAD4
:105A6000D303FB61FB699BB203F00103BB84BB8CD6
:105A7000FA69D31A4FEA5303FB84BB8C4FEA032322
:105A8000BB84FB8C012B02D9FB8CFF2B05D94FF07B
:105A90000203FB844FF00003BB843B68DA88BB8CB5
:105AA00013439AB2FB8C13439AB27B681A843B6807
:105AB0001A883B6859883B6898883B689B890343F0
:105AC0009BB20B439BB213439AB27B8B13439BB2A3
:105AD00043F400637B837B687A8B9A8307F12C07FE
