:020000040800F2
:10000000388B012089010008F5010008F50100087E
:10001000F5010008F5010008F501000800000000E6
:10002000000000000000000000000000F5010008D2
:10003000F501000800000000F5010008F5010008C6
:10004000F5010008F5010008F5010008F5010008B8
:10005000F5010008F5010008F5010008F5010008A8
:10006000F5010008F5010008F5010008F501000898
:10007000F5010008F5010008F5010008F501000888
:10008000F5010008F5010008F5010008F501000878
:10009000F5010008F5010008F5010008F501000868
:1000A000F5010008F5010008F5010008F501000858
:1000B00095020008F5010008F5010008F5010008A7
:1000C000F5010008F5010008F5010008F501000838
:1000D000F5010008F5010008F5010008F501000828
:1000E000F5010008F5010008F5010008F501000818
:1000F000F5010008F5010008F5010008F501000808
:10010000F5010008F5010008F5010008F5010008F7
:10011000F5010008F5010008F5010008F5010008E7
:10012000F5010008F5010008F5010008F5010008D7
:10013000F5010008F5010008F5010008F5010008C7
:10014000F5010008F5010008F5010008F5010008B7
:10015000F5010008F5010008F5010008F5010008A7
:10016000F5010008F5010008F5010008F501000897
:10017000F5010008F5010008F5010008F501000887
:10018000F5010008F501000880B582B000AF41F626
:100190005C63C0F600037B6040F20003C2F2000320
:1001A0003B600BE07B681A683B681A603B6803F1B0
:1001B00004033B607B6803F104037B603A6848F208
:1001C0001833C2F201039A42ECD3084808494FF0B1
:1001D00000028842B8BF40F8042BFFF6FAAF00F0E7
:1001E00073F907F10807BD4680BD000018830120A0
:1001F0003483012080B400AFFEE700BF80B584B037
:1002000000AF4FF4C06001F0A3FC4FF01C033B7340
:100210004FF000037B734FF00003BB734FF00103FB
:10022000FB7307F10C03184601F0A6FC4FF0010028
:100230004FF0010100F0AEFA4FF035033B804FF074
:1002400000037B804FF009037B604FF000033B818C
:100250004FF00003BB723B464FF08040194601F05F
:10026000FDFC4FF080404FF0010101F0E5FD4FF043
:1002700080404FF001014FF0010201F089FD4FF085
:1002800080404FF0010101F063FD07F11007BD460A
:1002900080BD00BF80B582B000AF4FF001037B602E
:1002A0004FF080404FF0010101F096FD0346002B16
:1002B00000F006814FF47050C4F200004FF00201CC
:1002C00001F0DCF90346002B00F0F48040F200035B
:1002D000C2F200031B68002B40D148F22833C2F25F
:1002E00001031A6840F20803C2F2000353F82230F7
:1002F0009BB27A6892B202FB03F39BB24FF4705048
:10030000C4F20000194601F0ABF948F22833C2F2FA
:1003100001031A6842F20E739A4240F3AC8048F22D
:100320002833C2F201034FF0FF321A604FF44060ED
:10033000C4F202004FF4805100F0B4FE4FF440606C
:10034000C4F202004FF4005100F09EFE40F20003A0
:10035000C2F200034FF001021A608CE040F2000389
:10036000C2F200031B68012B3FD148F22833C2F2CE
:1003700001031A6849F64843C2F2000353F82230D9
:100380009BB27A6892B202FB03F39BB24FF47050B7
:10039000C4F20000194601F063F948F22833C2F2B2
:1003A00001031A6842F20E739A4264DD48F2283360
:1003B000C2F201034FF0FF321A604FF44060C4F202
:1003C00002004FF4005100F06DFE4FF44060C4F2A3
:1003D00002004FF4804100F057FE40F20003C2F2E9
:1003E00000034FF002021A6045E040F20003C2F23F
:1003F00000031B68022B3ED148F22833C2F20103EE
:100400001A6843F68803C2F2010353F822309BB204
:100410007A6892B202FB03F39BB24FF47050C4F2BD
:100420000000194601F01CF948F22833C2F201031A
:100430001A6841F29E239A421DDD48F22833C2F227
:1004400001034FF0FF321A604FF44060C4F2020023
:100450004FF4804100F026FE4FF44060C4F20200E9
:100460004FF4805100F010FE40F20003C2F200038E
:100470004FF000021A6040F20403C2F200031B684E
:10048000002B0BDA48F22833C2F201031B6803F198
:10049000010248F22833C2F201031A6040F2040359
:1004A000C2F200031B68C3F1000240F20403C2F26F
:1004B00000031A604FF080404FF0010101F0BCFCD6
:1004C00007F10807BD4680BD80B500AF00F04CFEC7
:1004D0004FF008004FF0010100F032F948F22C33E0
:1004E000C2F201034FF470421A6048F22C33C2F298
:1004F00001034FF001021A7148F22C33C2F20103DA
:100500004FF000029A7148F22C33C2F201034FF00F
:1005100002025A714FF44060C4F2020048F22C31DA
:10052000C2F2010100F0F0FC4FF004004FF00101B5
:1005300000F006F900F0ACF900F0AAFA4FF47050A0
:10054000C4F200004FF0010101F06AF8FFF756FE17
:10055000FEE700BF80B483B000AF0346FB714FF0ED
:100560006803C4F24723FA791A6007F10C07BD4605
:1005700080BC704780B489B000AF78604FF0000352
:10058000BB614FF000037B614FF00003FB614FF054
:1005900002033B614FF00003FB604FF00203BB60BE
:1005A0004FF46053C4F202039B6803F00C03BB6179
:1005B000BB69042B0AD0082B0FD0002B60D17A68BE
:1005C0004FF41053C0F2F403136060E07A684FF404
:1005D0009053C0F27A03136059E04FF46053C4F2B1
:1005E00002035B6803F480034FEA9353FB604FF40C
:1005F0006053C4F202035B6803F03F03BB60FB6817
:10060000002B14D04FF49053C0F27A03BA68B3FBB6
:10061000F2F24FF46053C4F20203596847F6C07314
:100620000B404FEA931303FB02F3FB6113E04FF41B
:100630001053C0F2F403BA68B3FBF2F24FF4605304
:10064000C4F20203596847F6C0730B404FEA931394
:1006500003FB02F3FB614FF46053C4F202035B68D7
:1006600003F440334FEA134303F101034FEA43031A
:100670003B61FA693B69B2FBF3F27B681A6006E002
:100680007A684FF41053C0F2F403136000BF4FF4C4
:100690006053C4F202039B6803F0F003BB61BB69C3
:1006A0004FEA1313BB6148F20833C2F20103BA697F
:1006B0009B181B78DBB27B617B681A687B6922FA26
:1006C00003F27B685A604FF46053C4F202039B68E4
:1006D00003F4E053BB61BB694FEA9323BB6148F26B
:1006E0000833C2F20103BA699B181B78DBB27B6145
:1006F0007B685A687B6922FA03F27B689A604FF440
:100700006053C4F202039B6803F46043BB61BB699E
:100710004FEA5333BB6148F20833C2F20103BA69AE
:100720009B181B78DBB27B617B685A687B6922FA75
:1007300003F27B68DA6007F12407BD4680BC70478E
:1007400080B483B000AF78600B46FB70FB78002B61
:100750000CD04FF46053C4F202034FF46052C4F261
:100760000202116B7A680A431A630DE04FF460537A
:10077000C4F202034FF46052C4F20202116B7A68B1
:100780006FEA02020A401A6307F10C07BD4680BCFB
:10079000704700BF80B483B000AF78600B46FB7039
:1007A000FB78002B0CD04FF46053C4F202034FF4DB
:1007B0006052C4F20202116C7A680A431A640DE0B6
:1007C0004FF46053C4F202034FF46052C4F20202C9
:1007D000116C7A686FEA02020A401A6407F10C078A
:1007E000BD4680BC704700BF80B483B000AF786066
:1007F0000B46FB70FB78002B0CD04FF46053C4F217
:1008000002034FF46052C4F20202116A7A680A438A
:100810001A620DE04FF46053C4F202034FF46052C9
:10082000C4F20202116A7A686FEA02020A401A628E
:1008300007F10C07BD4680BC704700BF80B483B091
:1008400000AF78600B46FB70FB78002B0CD04FF4A8
:100850006053C4F202034FF46052C4F20202516AC0
:100860007A680A435A620DE04FF46053C4F20203FF
:100870004FF46052C4F20202516A7A686FEA0202CF
:100880000A405A6207F10C07BD4680BC704700BFA2
:1008900080B58AB000AF07F12003184600F0D6FB00
:1008A0004FF010033B624FF0010387F824304FF004
:1008B000020387F827304FF0000387F826304FF007
:1008C000020387F825304FF00B004FF00101FFF7CE
:1008D00037FF07F120034FF44060C4F202001946CD
:1008E00000F012FB4FF0020387F824304FF00103B1
:1008F00087F826304FF410733B624FF0000387F8FF
:1009000027304FF0020387F8253007F120034FF41A
:100910008060C4F20200194600F0F6FA4FF48060DD
:10092000C4F202004FF006014FF0040200F0C8FBD1
:100930004FF48060C4F202004FF009014FF004024E
:1009400000F0BEFB4FF402104FF00101FFF722FF51
:100950004FF00100FFF7FEFD4FF0000387F826304F
:100960004FF4A4533B6207F120034FF40060C4F23C
:100970000200194600F0C8FA4FF010033B6207F17D
:1009800020034FF00000C4F20200194600F0BCFA48
:100990004FF00000C4F202004FF004014FF00602D5
:1009A00000F08EFB4FF40060C4F202004FF007012C
:1009B0004FF0060200F084FB4FF40060C4F2020026
:1009C0004FF00A014FF0060200F07AFB4FF400608E
:1009D000C4F202004FF00C014FF0060200F070FB71
:1009E0004FF44060C4F202004FF0100100F05AFBD7
:1009F0004FF47050C4F2000000F0C4FC4FF47A537E
:100A0000BB614FF40073FB824FF00003BB824FF4D5
:100A100000733B824FF000037B824FF00003BB83E7
:100A200007F110034FF47050C4F20000194600F0B3
:100A3000EDFC4FF4A840C4F2000000F03FFE48F285
:100A4000A063C0F201033B604FF00003BB804FF096
:100A500033033B814FF480637B814FF48043BB8140
:100A60004BF6FF73FB804FF4A840C4F200004FF038
:100A7000010100F03DFF3B464FF4A840C4F20000E6
:100A8000194600F05FFE07F12807BD4680BD00BF94
:100A900080B584B000AF4FF0FF03FB724FF44060AD
:100AA000C4F202004FF0100100F0EEFA44F24023CD
:100AB000C0F20F03FB6003E0FB6803F1FF33FB6050
:100AC000FB68002BF8D14FF00D033B714FF0010391
:100AD0007B7107F1040318464FF0020100F0CEF8D5
:100AE0004FF000033B714FF099037B7107F1040352
:100AF00018464FF0020100F0C1F84FF047033B7178
:100B00004FF080037B7107F1040318464FF0020198
:100B100000F0B4F84FF0320000F030F90346FB72F9
:100B20004FF032033B71FB7A63F07F03DBB27B71E2
:100B300007F1040318464FF0020100F09FF84FF050
:100B4000320000F01BF90346FB724FF032033B7199
:100B5000FB7A03F07F03DBB27B7107F104031846D5
:100B60004FF0020100F08AF84FF000033B714FF0A4
:100B700000037B7107F1040318464FF0020100F0F7
:100B80007DF84FF004033B714FF0AF037B7107F129
:100B9000040318464FF0020100F070F84FF00D0307
:100BA0003B714FF070037B7107F1040318464FF05F
:100BB000020100F063F84FF005033B714FF0810331
:100BC0007B7107F1040318464FF0020100F056F85C
:100BD0004FF006033B714FF007037B7107F10403ED
:100BE00018464FF0020100F049F84FF00A033B713C
:100BF0004FF000037B7107F1040318464FF0020128
:100C000000F03CF84FF027033B714FF000037B717D
:100C100007F1040318464FF0020100F02FF84FF0DF
:100C20009A033B714FF00A037B714FF00A03BB71CB
:100C300007F1040318464FF0030100F01FF84FF0CE
:100C40001F033B714FF00F037B7107F1040318463C
:100C50004FF0020100F012F84FF002033B714FF029
:100C60009E037B7107F1040318464FF0020100F068
:100C700005F807F11007BD4680BD00BF80B584B000
:100C800000AF78600B46FB704FF00003FB7300BFB2
:100C90004FF4A840C4F200004FF4003100F01CFFF4
:100CA0000346002BF4D14FF4A840C4F200004FF0EB
:100CB000010100F03DFE00BF4FF4A840C4F2000067
:100CC0004FF00101C1F2000100F006FF0346002BC6
:100CD000F2D04FF4A840C4F200004FF094014FF05E
:100CE000000200F065FE00BF4FF4A840C4F200000F
:100CF0004FF08201C0F2070100F0B6FE0346002B60
:100D0000F2D01CE0FB7B7A68D3181B784FF4A84024
:100D1000C4F20000194600F089FEFB7B03F10103D9
:100D2000FB7300BF4FF4A840C4F200004FF08001F5
:100D3000C0F2070100F098FE0346002BF2D0FA7BC8
:100D4000FB789A42DED300BF4FF4A840C4F2000003
:100D50004FF00401C1F2000100F0BEFE0346002B7B
:100D6000F2D04FF4A840C4F200004FF0010100F0AF
:100D7000FFFD07F11007BD4680BD00BF80B584B000
:100D800000AF0346FB714FF00003FB7300BF4FF44D
:100D9000A840C4F200004FF4003100F09DFE03466D
:100DA000002BF4D14FF4A840C4F200004FF0010131
:100DB00000F0BEFD00BF4FF4A840C4F200004FF0A9
:100DC0000101C1F2000100F087FE0346002BF2D0C2
:100DD0004FF4A840C4F200004FF094014FF000021D
:100DE00000F0E6FD00BF4FF4A840C4F200004FF051
:100DF0008201C0F2070100F037FE0346002BF2D05B
:100E0000FB794FF4A840C4F20000194600F00EFE32
:100E100000BF4FF4A840C4F200004FF08001C0F2C0
:100E2000070100F021FE0346002BF2D04FF4A8404A
:100E3000C4F200004FF0010100F09AFD00BF4FF432
:100E4000A840C4F200004FF4003100F045FE034614
:100E5000002BF4D14FF4A840C4F200004FF0000181
:100E600000F0C4FD4FF4A840C4F200004FF00101AF
:100E700000F05EFD00BF4FF4A840C4F200004FF048
:100E80000101C1F2000100F027FE0346002BF2D061
:100E90004FF4A840C4F200004FF094014FF001025B
:100EA00000F086FD00BF4FF4A840C4F200004FF0F0
:100EB0000201C0F2030100F0D7FD0346002BF2D07F
:100EC00000BF4FF4A840C4F200004FF04001C0F250
:100ED000030100F0C9FD0346002BF2D04FF4A840F7
:100EE000C4F2000000F0B2FD0346FB734FF4A840CB
:100EF000C4F200004FF0010100F03AFDFB7B184600
:100F000007F11007BD4680BD80B487B000AF7860A0
:100F100039604FF000037B614FF000033B614FF0FD
:100F20000003FB604FF000037B6186E07B694FF0BC
:100F3000010202FA03F33B613B681A683B69134004
:100F4000FB60FA683B699A4273D17B681A687B69D7
:100F50004FEA43034FF0030101FA03F36FEA03037F
:100F60001A407B681A607B681A683B681B791946CF
:100F70007B694FEA430301FA03F31A437B681A6063
:100F80003B681B79012B03D03B681B79022B34D1C2
:100F90007B689A687B694FEA43034FF0030101FACB
:100FA00003F36FEA03031A407B689A607B689A68D0
:100FB0003B685B7919467B694FEA430301FA03F307
:100FC0001A437B689A607B685A687B699BB24FF0D2
:100FD000010101FA03F36FEA03031A407B685A60C8
:100FE0007B685A683B689B7919467B699BB201FA1A
:100FF00003F39BB21A437B685A607B68DA687B69AB
:101000009BB24FEA43034FF0030101FA03F36FEA87
:1010100003031A407B68DA607B68DA683B68DB7937
:1010200019467B694FEA430301FA03F31A437B68CD
:10103000DA607B6903F101037B617B690F2B7FF62B
:1010400075AF07F11C07BD4680BC704780B483B004
:1010500000AF78607B684FF6FF721A607B684FF0D4
:1010600000021A717B684FF000025A717B684FF0E2
:1010700000029A717B684FF00002DA7107F10C07E9
:10108000BD4680BC704700BF80B483B000AF7860BD
:101090000B467B807B687A881A8307F10C07BD4674
:1010A00080BC704780B483B000AF78600B467B8013
:1010B0007B687A885A8307F10C07BD4680BC70476D
:1010C00080B485B000AF786013460A467A807B70A2
:1010D0004FF00003FB604FF00003BB607A787B8821
:1010E00003F007034FEA830302FA03F3FB607B88F4
:1010F0004FEAD3039BB21A467B884FEAD3039BB2D5
:1011000019467B6801F1080153F821107B8803F030
:1011100007034FEA83034FF00F0000FA03F36FEA6F
:10112000030319407B6802F1080243F822107B8810
:101130004FEAD3039BB21A467B6802F1080253F8C8
:101140002220FB681343BB607B884FEAD3039BB22A
:101150001A467B6802F10802B96843F8221007F1C9
:101160001407BD4680BC704780B500AF4FF4605394
:10117000C4F202034FF46052C4F20202126842F059
:1011800001021A604FF46053C4F202034FF00002F0
:101190009A604FF46053C4F202034FF46052C4F2F9
:1011A0000202126822F0847222F480321A604FF434
:1011B0006053C4F2020343F21002C2F200425A60CA
:1011C0004FF46053C4F202034FF46052C4F20202BF
:1011D000126822F480221A604FF46053C4F20203B2
:1011E0004FF00002DA6000F009F84FF46D43CEF2E0
:1011F00000034FF000629A6080BD00BF80B483B0EE
:1012000000AF4FF000037B604FF000033B604FF4F2
:101210006053C4F202034FF46052C4F20202126837
:1012200042F480321A604FF46053C4F202031B6828
:1012300003F400333B607B6803F101037B603B6890
:10124000002B03D17B68B3F5A06FECD14FF4605352
:10125000C4F202031B6803F40033002B03D04FF0E9
:1012600001033B6002E04FF000033B603B68012B51
:1012700040F082804FF46053C4F202034FF4605296
:10128000C4F20202126C42F080521A644FF4E0433E
:10129000C4F200034FF4E042C4F20002126842F4C8
:1012A00080421A604FF46053C4F202034FF460525C
:1012B000C4F2020292689A604FF46053C4F20203CF
:1012C0004FF46052C4F20202926842F400429A6003
:1012D0004FF46053C4F202034FF46052C4F20202AE
:1012E000926842F4A0529A604FF46053C4F2020331
:1012F00045F20842C0F240725A604FF46053C4F2A3
:1013000002034FF46052C4F20202126842F080728B
:101310001A6000BF4FF46053C4F202031B6803F06D
:101320000073002BF6D04FF47053C4F2020340F266
:1013300005621A604FF46053C4F202034FF4605226
:10134000C4F20202926822F003029A604FF46053E2
:10135000C4F202034FF46052C4F20202926842F0F7
:1013600002029A6000BF4FF46053C4F202039B680C
:1013700003F00C03082BF6D107F10C07BD4680BC27
:10138000704700BF80B582B000AF78607A684FF4D4
:101390004053C4F201039A420CD14FF480504FF0F5
:1013A0000101FFF74BFA4FF480504FF00001FFF7B7
:1013B00045FA26E07A684FF46053C4F200039A427B
:1013C0000CD14FF480404FF00101FFF70DFA4FF4BC
:1013D00080404FF00001FFF707FA12E07A684FF4FF
:1013E0007053C4F200039A420BD14FF400404FF007
:1013F0000101FFF7F9F94FF400404FF00001FFF74A
:10140000F3F907F10807BD4680BD00BF80B48BB07B
:1014100000AF786039604FF000037B834FF0020328
:10142000FB844FF00003BB844FF001037B844FF03B
:101430000003FB614FF000037B614FF000033B6151
:101440004FF00003FB604FF00003BB607B689B8B99
:101450009BB223F47B6323F00F039AB27B689A83D9
:101460007B684FF002021A847B689B8B7B833B680E
:101470009B68022B06D14FF00003BB844FF00203A0
:10148000FB849AE03B689B88002B03D14FF001035B
:101490007B8402E04FF002037B844FF46053C4F27C
:1014A00002039B6803F40003002B0BD04FF460533E
:1014B000C4F202034FF46052C4F20202926822F4B2
:1014C00000029A604FF46053C4F20203D3F8842000
:1014D00047F6C07313404FEA93134FEAC3534FEAE2
:1014E000D353FB604FF46053C4F20203D3F884304B
:1014F00003F0E0434FEA137303F00703BB604FF4BC
:101500006053C4F202035B6803F03F033B614FF496
:101510009053C0F27A033A69B3FBF2F3FA6802FB24
:1015200003F2BB68B2FBF3F37B613B68DB88B3F586
:10153000007F13D17B694FEA132213464FEA8303DE
:101540009B184FEA43031A463B689B68B2FBF3F3D0
:101550009BB203F105039BB2FB6115E07B8C4FEA64
:1015600043137A69B2FBF3F213464FEA83039B18E5
:101570004FEA43031A463B689B68B2FBF3F39BB206
:1015800003F105039BB2FB61FA694CF6CD43CCF63F
:10159000CC43A3FB02134FEAD303FB61FB699BB26D
:1015A00003F00103BB84BB8CFA69D31A4FEA5303DF
:1015B000FB84BB8C4FEA0323BB84FB8C012B02D939
:1015C000FB8CFF2B05D94FF00203FB844FF0000387
:1015D000BB843B68DA88BB8C13439AB2FB8C134301
:1015E0009AB27B681A843B681A883B6859883B68C2
:1015F00098883B689B8903439BB20B439BB2134380
:101600009AB27B8B13439BB243F400637B837B686A
:101610007A8B9A8307F12C07BD4680BC704700BFC8
:1016200080B483B000AF78600B46FB70FB78002B72
:1016300008D07B689B8B9BB243F480639AB27B6833
:101640009A8307E07B689B8B9BB223F480639AB2FA
:101650007B689A8307F10C07BD4680BC704700BFCA
:1016600080B483B000AF78600B467B807B687A885B
:101670009A8107F10C07BD4680BC704780B485B0E5
:1016800000AF78600B467B804FF00003FB737B68F4
:101690001B899AB27B8813409BB2002B03D04FF07A
:1016A0000103FB7302E04FF00003FB73FB7B184662
:1016B00007F11407BD4680BC704700BF80B582B0FB
:1016C00000AF78607A684FF4A843C4F200039A42EE
:1016D0000CD14FF400104FF00101FFF785F84FF4E3
:1016E00000104FF00001FFF77FF826E07A684FF412
:1016F000B043C4F200039A420CD14FF480004FF083
:101700000101FFF771F84FF480004FF00001FFF77F
:101710006BF812E07A684FF4B843C4F200039A42BF
:101720000BD14FF400004FF00101FFF75DF84FF4CB
:1017300000004FF00001FFF757F807F10807BD461A
:1017400080BD00BF80B58AB000AF786039604FF0CF
:101750000003FB844FF000037B844FF00403BB8441
:101760004FF49053C0F27A03FB617B689B88FB8443
:10177000FB8C23F03F03FB8407F10C031846FEF7B4
:10178000F9FE7B69FB61FA694DF68363C4F21B3392
:10179000A3FB02134FEA93437B84FA8C7B8C1343A5
:1017A000FB847B68FA8C9A807B681B889BB223F051
:1017B00001039AB27B681A804FF00003FB843B68F8
:1017C0001A6848F2A063C0F201039A4218D83B6835
:1017D0001B684FEA4303FA69B2FBF3F3BB84BB8C8B
:1017E000032B02D84FF00403BB84FA8CBB8C134349
:1017F000FB847B8C03F101039AB27B681A844BE073
:101800003B68DA884BF6FF739A420AD13B681A6844
:1018100013464FEA43039B18FA69B2FBF3F3BB8408
:1018200010E03B681A6813464FEA83039B184FEA9F
:1018300083029B18FA69B2FBF3F3BB84BB8C43F4BD
:101840008043BB84BB8C4FEA03534FEA1353002BF6
:1018500003D1BB8C43F00103BB84BA8CFB8C1343D4
:101860009BB26FEA43436FEA5343FB847B8C4FF494
:10187000967202FB03F244F6D353C1F2620383FB78
:1018800002134FEAA3114FEAE273CB1A9BB203F1A2
:1018900001039AB27B681A847B68FA8C9A837B680E
:1018A0001B889BB243F001039AB27B681A807B6865
:1018B0001B88FB84FB8C23F4816323F00203FB84ED
:1018C0003B689A883B685B8913439AB2FB8C13434D
:1018D000FB847B68FA8C1A803B689A893B681B8979
:1018E00013439AB27B681A8107F12807BD4680BD71
:1018F00080B483B000AF78600B46FB70FB78002BA0
:1019000008D07B681B889BB243F001039AB27B68C6
:101910001A8007E07B681B889BB223F001039AB210
:101920007B681A8007F10C07BD4680BC704700BF7A
:1019300080B483B000AF78600B46FB70FB78002B5F
:1019400008D07B681B889BB243F480739AB27B6893
:101950001A8007E07B681B889BB223F480739AB2DD
:101960007B681A8007F10C07BD4680BC704700BF3A
:1019700080B483B000AF78600B46FB70FB78002B1F
:1019800008D07B681B889BB243F400739AB27B68D3
:101990001A8007E07B681B889BB223F400739AB21D
:1019A0007B681A8007F10C07BD4680BC704700BFFA
:1019B00080B483B000AF786013460A46FA70BB70FB
:1019C000BB78002B04D0FB7843F00103FB7003E0ED
:1019D000FB7823F00103FB70FB789AB27B681A82D4
:1019E00007F10C07BD4680BC704700BF80B483B0D0
:1019F00000AF78600B46FB70FB78002B08D07B684B
:101A00001B889BB243F480639AB27B681A8007E01C
:101A10007B681B889BB223F480639AB27B681A8030
:101A200007F10C07BD4680BC704700BF80B483B08F
:101A300000AF78600B46FB70FB789AB27B681A8225
:101A400007F10C07BD4680BC704700BF80B483B06F
:101A500000AF78607B681B8A9BB2DBB2184607F147
:101A60000C07BD4680BC704780B487B000AF78607B
:101A700039604FF000033B614FF00003FB604FF013
:101A80000003BB604FF00003FB757B689B8A9BB231
:101A9000FB607B681B8B9BB2BB60BB684FEA034358
:101AA000BB60FA68BB68134323F07F433B613A692C
:101AB0003B681A403B689A4203D14FF00103FB7523
:101AC00002E04FF00003FB75FB7D184607F11C0791
:101AD000BD4680BC704700BF80B487B000AF78605F
:101AE00039604FF00003FB754FF000033B614FF08E
:101AF0000003FB607B68FB603B684FEA13733B614C
:101B00003B6823F07F433B603B69002B04D0FB68BC
:101B100003F11403FB6007E03B684FEA13433B60AB
:101B2000FB6803F11803FB60FB681A683B6813400D
:101B3000002B03D04FF00103FB7502E04FF00003D0
:101B4000FB75FB7D184607F11C07BD4680BC70473E
:101B500080B483B000AF78604FF46D43CEF20003E1
:101B60007A6842F0BF6242F40032DA6007F10C0793
:101B7000BD4680BC704700BF80B485B000AF7860C0
:101B80004FF00003FB734FF00003BB734FF00F03E4
:101B90007B737B68DB78002B45D04FF46D43CEF22E
:101BA0000003DB686FEA030303F4E0634FEA1323E7
:101BB000FB73FB7BC3F10403BB737A7BFB7B42FAB1
:101BC00003F37B737B685B781A46BB7B02FA03F3F3
:101BD000FB737B689A787B7B1340DAB2FB7B134301
:101BE000FB73FB7B4FEA0313FB734FF46143CEF2AD
:101BF00000037A6812789B18FA7B83F800234FF46D
:101C00006143CEF200037A6812784FEA5212D2B2E0
:101C10007968097801F01F014FF0010000FA01F125
:101C200043F8221014E04FF46143CEF200037A68C7
:101C300012784FEA5212D2B27968097801F01F0186
:101C40004FF0010000FA01F102F1200243F82210E6
:101C500007F11407BD4680BC704700BF80B485B053
:101C600000AF786039604FF00003FB817B681B8810
:101C7000FB817A684FF00003C4F201039A421FD03F
:101C80007A684FF48063C4F201039A4218D07B68EB
:101C9000B3F1804F14D07A684FF48063C4F200032C
:101CA0009A420DD07A684FF40063C4F200039A425E
:101CB00006D07A684FF44063C4F200039A4208D118
:101CC000FB8923F07003FB813B685A88FB8913432F
:101CD000FB817A684FF48053C4F200039A420FD01C
:101CE0007A684FF4A053C4F200039A4208D0FB89EB
:101CF00023F44073FB813B681A89FB891343FB8102
:101D00007B68FA891A803B685A687B68DA623B68AC
:101D10001A887B681A857A684FF00003C4F20103C1
:101D20009A4206D07A684FF48063C4F201039A4263
:101D300004D13B689B7A1A467B681A867B684FF011
:101D400001029A8207F11407BD4680BC704700BFAC
:101D500080B483B000AF78600B46FB70FB78002B3B
:101D600008D07B681B889BB243F001039AB27B6862
:101D70001A8007E07B681B889BB223F001039AB2AC
:101D80007B681A8007F10C07BD4680BC704700BF16
:101D900080B483B000AF786013460A467A807B70C7
:101DA0007B78002B08D07B689B899AB27B88134391
:101DB0009AB27B689A810AE07B689B899AB27B8899
:101DC0006FEA03039BB213409AB27B689A8107F1D2
:101DD0000C07BD4680BC704780B485B000AF78600A
:101DE0000B467B804FF00003FB734FF00003BB8179
:101DF0004FF000037B817B681B8A9AB27B8813407B
:101E0000BB817B689B899AB27B8813407B81BB89AD
:101E1000002B06D07B89002B03D04FF00103FB730E
:101E200002E04FF00003FB73FB7B184607F1140739
:101E3000BD4680BC704700BF80B483B000AF7860FF
:101E40000B467B807B886FEA03039AB27B681A8219
:0C1E500007F10C07BD4680BC704700BFC6
:101E5C0002000000FFFFFFFF00000000FFFF00007A
:101E6C000100000000000000000000000000000065
:101E7C00010000000000000000000000FFFF000057
:101E8C000100000000000000000000000000000045
:101E9C00FFFF000000000000010000000000000037
:101EAC000000000002000000FFFF0000FFFF000028
:101EBC000000000000000000010000000000000015
:101ECC00000000000000000000000000FFFF000008
:101EDC00010000000000000000000000FFFF0000F7
:101EEC00010000000000000000000000FFFF0000E7
:101EFC0000000000010000000000000000000000D5
:101F0C0000000000FFFF0000FFFF000001000000C8
:101F1C000000000001000000FFFF000001000000B5
:101F2C00000000000000000000000000FFFF0000A7
:101F3C000000000000000000000000000100000094
:101F4C00FEFF000001000000FFFF00000100000088
:101F5C00FFFF00000000000002000000FFFF000077
:101F6C000000000001000000000000000000000064
:101F7C000000000000000000FFFF00000100000056
:101F8C00FFFF000000000000010000000000000046
:101F9C00FFFF000001000000000000000100000035
:101FAC000000000000000000000000000000000025
:101FBC00000000000000000001000000FFFF000016
:101FCC000100000000000000FFFF00000000000006
:101FDC000100000000000000FFFF000001000000F5
:101FEC0000000000FFFF000002000000FEFF0000E8
:101FFC000200000000000000FFFF000000000000D5
:10200C00FFFF000002000000FFFF0000FFFF0000C8
:10201C00010000000000000000000000FFFF0000B5
:10202C000000000001000000FFFF0000FFFF0000A7
:10203C000100000000000000FFFF00000000000095
:10204C000100000000000000000000000000000083
:10205C0000000000FFFF0000000000000100000075
:10206C00FEFF000001000000000000000000000066
:10207C00FFFF00000200000000000000FFFF000056
:10208C000000000000000000000000000100000043
:10209C00FFFF000000000000000000000100000035
:1020AC00FFFF00000100000000000000FFFF000027
:1020BC000100000000000000FFFF00000000000015
:1020CC0001000000FEFF000002000000FFFF000006
:1020DC00FFFF000001000000FFFF000001000000F6
:1020EC000000000000000000FFFF000001000000E5
:1020FC00FFFF00000000000001000000FFFF0000D7
:10210C0001000000FFFF00000000000000000000C4
:10211C0001000000000000000000000000000000B2
:10212C0000000000FFFF00000000000000000000A5
:10213C00000000000100000000000000FFFF000094
:10214C000000000001000000FFFF00000000000084
:10215C000100000001000000000000000000000071
:10216C00FFFF000001000000000000000100000063
:10217C00FFFF000000000000000000000100000054
:10218C000000000000000000FFFF00000100000044
:10219C0001000000FFFF000000000000FFFF000036
:1021AC00000000000000000002000000FFFF000023
:1021BC0001000000FEFF000001000000FFFF000016
:1021CC000100000001000000FEFF00000200000002
:1021DC00FFFF00000000000001000000FFFF0000F6
:1021EC0000000000010000000000000000000000E2
:1021FC0000000000000000000000000000000000D3
:10220C0000000000000000000000000000000000C2
:10221C0000000000000000000100000000000000B1
:10222C0001000000FFFF00000000000001000000A2
:10223C000000000000000000000000000000000092
:10224C00FFFF000001000000000000000000000083
:10225C000000000000000000FFFF00000100000073
:10226C000100000000000000FFFF00000000000063
:10227C00FFFF00000100000001000000FFFF000054
:10228C0001000000FFFF0000000000000000000043
:10229C00020000000000000000000000FFFF000032
:1022AC000000000000000000000000000100000021
:1022BC0000000000FFFF0000000000000000000014
:1022CC00000000000000000000000000FFFF000004
:1022DC000000000001000000FFFF000001000000F2
:1022EC00000000000000000000000000FFFF0000E4
:1022FC0001000000FEFF00000000000001000000D3
:10230C00FFFF00000000000001000000FEFF0000C5
:10231C000200000000000000FFFF000000000000B1
:10232C0001000000FFFF00000000000001000000A1
:10233C00FFFF000000000000FFFF00000100000094
:10234C00000000000000000001000000FFFF000082
:10235C000000000001000000000000000000000070
:10236C0000000000FFFF000001000000FFFF000064
:10237C000100000000000000FFFF00000100000051
:10238C00FFFF000000000000010000000000000042
:10239C000000000001000000FFFF0000FFFF000034
:1023AC000000000000000000010000000000000020
:1023BC00FFFF0000FFFF000001000000FFFF000016
:1023CC0001000000FFFF0000010000000000000001
:1023DC00FFFF00000000000000000000FEFF0000F6
:1023EC00000000000100000000000000FFFF0000E2
:1023FC00000000000000000001000000FFFF0000D2
:10240C0000000000000000000100000000000000BF
:10241C0000000000FFFF00000000000000000000B2
:10242C0000000000FEFF00000100000000000000A2
:10243C00000000000000000001000000FEFF000092
:10244C000100000000000000FFFF00000000000081
:10245C00FFFF000000000000000000000100000071
:10246C00FFFF000000000000010000000000000061
:10247C00000000000000000000000000FFFF000052
:10248C0001000000FFFF000001000000FFFF000042
:10249C00000000000100000001000000FEFF000031
:1024AC00000000000100000000000000FFFF000021
:1024BC000000000001000000FFFF00000000000011
:1024CC000000000002000000FEFF00000000000001
:1024DC00000000000100000001000000FFFF0000F0
:1024EC00000000000100000000000000FFFF0000E1
:1024FC000100000000000000FFFF000000000000D1
:10250C00FFFF00000100000001000000FFFF0000C1
:10251C000000000001000000FFFF000001000000AF
:10252C0001000000FFFF000001000000FEFF0000A2
:10253C0002000000FFFF000000000000000000008F
:10254C00FFFF00000000000000000000FFFF000083
:10255C0001000000FFFF000001000000000000006F
:10256C00FEFF000001000000000000000000000061
:10257C0000000000FFFF000000000000FFFF000053
:10258C00010000000000000000000000FFFF000040
:10259C00020000000000000000000000FFFF00002F
:1025AC000100000001000000FEFF00000000000020
:1025BC000000000002000000FFFF0000FFFF000011
:1025CC0001000000FFFF000001000000FFFF000001
:1025DC0000000000000000000100000001000000ED
:1025EC00FEFF000002000000FFFF0000FFFF0000E4
:1025FC0001000000FFFF00000200000000000000CE
:10260C0000000000FFFF000000000000FFFF0000C2
:10261C0001000000FFFF00000100000000000000AE
:10262C0001000000FEFF00000000000000000000A0
:10263C00000000000000000001000000010000008C
:10264C0000000000FFFF000001000000000000007F
:10265C000000000001000000FFFF0000010000006E
:10266C00FFFF0000FFFF0000010000000000000061
:10267C000000000001000000FFFF0000000000004F
:10268C0000000000FFFF0000000000000000000040
:10269C00FFFF000002000000FFFF00000000000030
:1026AC000100000000000000FFFF0000000000001F
:1026BC00000000000100000000000000000000000D
:1026CC0000000000FFFF000000000000FFFF000002
:1026DC000100000000000000FFFF000001000000EE
:1026EC0000000000FFFF000001000000FEFF0000E2
:1026FC0001000000FFFF00000000000000000000CF
:10270C0000000000FFFF00000000000000000000BF
:10271C0000000000010000000000000000000000AC
:10272C0000000000FFFF000000000000010000009E
:10273C00FFFF00000000000000000000000000008F
:10274C00010000000000000000000000000000007C
:10275C00FFFF00000000000000000000010000006E
:10276C0000000000FFFF000000000000FFFF000061
:10277C0002000000FFFF000001000000000000004C
:10278C000000000000000000FFFF0000000000003F
:10279C00000000000000000001000000000000002C
:1027AC0001000000FFFF000001000000FFFF00001F
:1027BC000100000000000000FFFF0000010000000D
:1027CC00000000000000000000000000FFFF0000FF
:1027DC0001000000FFFF000002000000FFFF0000EE
:1027EC0001000000000000000000000000000000DC
:1027FC0000000000FFFF000000000000FFFF0000D1
:10280C0002000000FFFF00000000000000000000BC
:10281C0001000000FFFF00000000000000000000AD
:10282C00FFFF00000100000000000000000000009D
:10283C0000000000FFFF000000000000010000008D
:10284C0000000000FFFF000001000000FEFF000080
:10285C000100000001000000FFFF0000000000006C
:10286C0000000000FFFF000001000000000000005D
:10287C00FFFF00000000000001000000010000004C
:10288C0000000000FFFF000001000000000000003D
:10289C000000000000000000FFFF0000000000002E
:1028AC00FFFF000001000000FFFF0000000000001F
:1028BC00000000000000000000000000000000000C
:1028CC00FFFF0000FFFF00000100000000000000FF
:1028DC000000000001000000FFFF000001000000EC
:1028EC00FEFF0000010000000000000001000000DD
:1028FC00FFFF0000010000000100000000000000CC
:10290C0000000000FEFF00000100000000000000BD
:10291C00000000000000000000000000FFFF0000AD
:10292C00FFFF000001000000FFFF0000000000009E
:10293C000100000000000000FFFF0000010000008B
:10294C0000000000FFFF000001000000000000007C
:10295C00FFFF00000000000001000000000000006C
:10296C0001000000FFFF000001000000010000005A
:10297C00FEFF00000100000000000000FFFF00004F
:10298C00000000000000000001000000000000003A
:10299C00FFFF00000000000001000000FFFF00002E
:1029AC0001000000FFFF000000000000020000001A
:1029BC00FFFF0000FFFF000001000000FFFF000010
:1029CC0000000000000000000100000001000000F9
:1029DC00FFFF00000000000000000000FFFF0000EF
:1029EC000100000000000000FFFF000001000000DB
:1029FC0000000000FFFF000000000000FFFF0000CF
:102A0C0001000000000000000000000001000000B8
:102A1C00FFFF0000FFFF00000100000000000000AD
:102A2C00000000000000000000000000FFFF00009C
:102A3C000100000000000000000000000000000089
:102A4C00000000000000000000000000000000007A
:102A5C00FFFF000000000000FFFF0000000000006E
:102A6C0001000000FFFF0000FFFF0000000000005D
:102A7C000100000000000000FFFF0000000000004B
:102A8C00010000000100000000000000FFFF00003A
:102A9C00000000000000000001000000FFFF00002B
:102AAC0002000000FFFF0000FFFF0000020000001A
:102ABC00FFFF000000000000FFFF0000000000000E
:102ACC00000000000100000000000000FEFF0000FC
:102ADC0002000000FFFF00000100000000000000E9
:102AEC0001000000FFFF00000000000000000000DB
:102AFC0001000000FFFF00000000000000000000CB
:102B0C00FFFF00000200000000000000FFFF0000BB
:102B1C0001000000010000000100000000000000A6
:102B2C00000000000000000001000000FFFF00009A
:102B3C00FFFF000001000000FFFF0000010000008B
:102B4C0000000000FFFF000001000000000000007A
:102B5C0001000000FFFF000000000000000000006A
:102B6C000000000001000000000000000000000058
:102B7C00FEFF00000100000001000000FFFF00004C
:102B8C0001000000FFFF000000000000000000003A
:102B9C000100000000000000FEFF0000000000002B
:102BAC00000000000100000000000000FFFF00001A
:102BBC00FFFF000001000000FFFF0000010000000B
:102BCC000000000000000000FFFF000002000000F9
:102BDC00FEFF000001000000FFFF000000000000ED
:102BEC0001000000FFFF00000000000001000000D9
:102BFC0000000000000000000000000001000000C8
:102C0C00FFFF0000010000000000000001000000B8
:102C1C00FFFF0000FFFF00000100000000000000AB
:102C2C000000000001000000000000000000000097
:102C3C000000000000000000000000000000000088
:102C4C000000000000000000FFFF0000000000007A
:102C5C00FFFF00000200000000000000FFFF00006A
:102C6C00FFFF00000200000000000000FFFF00005A
:102C7C000100000001000000FEFF00000000000049
:102C8C00000000000000000001000000FFFF000039
:102C9C000100000000000000000000000000000027
:102CAC000000000000000000FFFF00000100000019
:102CBC00FFFF00000100000000000000FFFF00000B
:102CCC0000000000000000000000000001000000F7
:102CDC00FFFF000002000000FEFF000000000000EB
:102CEC0000000000000000000000000000000000D8
:102CFC00010000000000000000000000FEFF0000CA
:102D0C00010000000000000001000000FFFF0000B7
:102D1C000000000001000000FFFF000001000000A7
:102D2C00FFFF000002000000000000000000000097
:102D3C00FEFF000001000000000000000000000089
:102D4C0000000000FFFF0000010000000000000078
:102D5C00FFFF000001000000FFFF00000100000069
:102D6C000100000000000000FFFF00000100000057
:102D7C000000000001000000000000000000000046
:102D8C00FFFF00000000000000000000FFFF00003B
:102D9C0001000000FFFF0000020000000000000026
:102DAC00FFFF000000000000000000000100000018
:102DBC00FFFF000001000000010000000000000007
:102DCC00FFFF000001000000FFFF0000FFFF0000FC
:102DDC000000000001000000FEFF000000000000E9
:102DEC00000000000000000002000000FFFF0000D7
:102DFC000000000001000000FEFF000002000000C7
:102E0C00FFFF000001000000FFFF000000000000B9
:102E1C0000000000000000000100000000000000A5
:102E2C00000000000000000000000000FFFF000098
:102E3C000000000000000000000000000000000086
:102E4C00FFFF000001000000FFFF00000000000079
:102E5C0001000000FFFF0000000000000100000066
:102E6C00000000000000000000000000FFFF000058
:102E7C000000000000000000000000000200000044
:102E8C000000000000000000FFFF00000100000037
:102E9C00000000000000000000000000FFFF000028
:102EAC0001000000FFFF0000010000000100000015
:102EBC0000000000FEFF000001000000FFFF00000A
:102ECC00FFFF00000000000000000000FFFF0000FA
:102EDC0002000000FFFF0000FFFF000001000000E7
:102EEC0000000000FFFF00000000000001000000D7
:102EFC00FFFF0000010000000000000000000000C7
:102F0C00FFFF0000000000000100000000000000B6
:102F1C0000000000FFFF000001000000FFFF0000A8
:102F2C0000000000FFFF0000010000000000000096
:102F3C00FFFF00000000000001000000FFFF000088
:102F4C0001000000FEFF0000010000000000000076
:102F5C00FFFF000000000000010000000000000066
:102F6C000000000000000000FFFF00000200000055
:102F7C00FFFF000000000000000000000100000046
:102F8C000000000001000000FFFF00000000000036
:102F9C00FFFF00000100000000000000FFFF000028
:102FAC0001000000FFFF0000000000000100000015
:102FBC00FFFF000001000000FFFF00000100000007
:102FCC00FFFF000001000000FFFF000001000000F7
:102FDC0001000000FFFF000000000000FFFF0000E8
:102FEC00010000000000000000000000FFFF0000D6
:102FFC0001000000FFFF000001000000FFFF0000C7
:10300C00FFFF0000010000000000000000000000B5
:10301C0000000000FFFF00000100000001000000A4
:10302C0001000000FFFF000001000000FFFF000096
:10303C0000000000FFFF0000020000000000000084
:10304C00FFFF000001000000FFFF00000100000076
:10305C000000000000000000FFFF00000100000065
:10306C000000000001000000000000000000000053
:10307C00FFFF000000000000FFFF00000100000047
:10308C000000000000000000FFFF00000200000034
:10309C00FFFF00000100000000000000FFFF000027
:1030AC00FFFF000000000000010000000100000014
:1030BC00FFFF000000000000010000000000000005
:1030CC00FFFF0000000000000100000001000000F4
:1030DC00FFFF0000FFFF000002000000FEFF0000E9
:1030EC0001000000FFFF00000000000000000000D5
:1030FC00000000000100000001000000FEFF0000C5
:10310C0000000000010000000000000000000000B2
:10311C00000000000000000001000000FFFF0000A4
:10312C00FFFF000000000000000000000100000094
:10313C00FFFF000001000000000000000000000084
:10314C000000000001000000FFFF00000100000073
:10315C00FFFF00000100000000000000FFFF000066
:10316C0001000000FFFF0000FFFF00000000000056
:10317C00000000000100000001000000FFFF000043
:10318C000000000000000000010000000000000032
:10319C000000000000000000FFFF00000100000024
:1031AC000000000000000000FFFF00000100000014
:1031BC00FFFF000000000000000000000100000004
:1031CC0001000000FFFF00000000000000000000F4
:1031DC000000000001000000FFFF000000000000E4
:1031EC00010000000000000001000000FFFF0000D3
:1031FC0001000000FEFF00000000000000000000C5
:10320C0001000000FFFF00000100000000000000B2
:10321C0000000000000000000000000000000000A2
:10322C0000000000FEFF0000000000000100000094
:10323C000000000000000000FEFF00000200000083
:10324C0000000000FFFF0000000000000000000074
:10325C000000000000000000010000000000000061
:10326C00FFFF000000000000FFFF00000000000056
:10327C000000000001000000000000000000000041
:10328C000000000000000000000000000100000031
:10329C00FFFF000001000000FFFF00000100000024
:1032AC00FFFF000001000000FFFF00000000000015
:1032BC000000000000000000000000000000000002
:1032CC0000000000000000000000000001000000F1
:1032DC0000000000000000000000000000000000E2
:1032EC00FFFF000001000000FFFF000001000000D4
:1032FC0000000000FFFF0000FFFF000001000000C5
:10330C00FFFF0000020000000000000000000000B1
:10331C0000000000000000000000000000000000A1
:10332C00000000000000000000000000FFFF000093
:10333C000100000001000000FEFF00000100000081
:10334C00FFFF000001000000000000000000000072
:10335C000000000001000000FFFF00000000000062
:10336C00FFFF000001000000010000000000000051
:10337C00FFFF000000000000000000000000000043
:10338C0002000000FEFF0000000000000000000032
:10339C00000000000100000000000000FFFF000022
:1033AC000000000000000000000000000100000010
:1033BC00FFFF000001000000FFFF00000100000003
:1033CC0001000000FFFF0000FFFF000000000000F4
:1033DC000100000000000000FFFF000001000000E1
:1033EC00FEFF00000100000000000000FFFF0000D5
:1033FC00000000000000000000000000FFFF0000C3
:10340C0002000000FEFF00000000000000000000B1
:10341C00000000000000000001000000FFFF0000A1
:10342C0001000000FFFF000001000000FFFF000092
:10343C00000000000100000000000000000000007F
:10344C000100000001000000FFFF0000010000006F
:10345C00FFFF000001000000FFFF0000FFFF000065
:10346C00000000000000000000000000FFFF000052
:10347C00000000000000000000000000010000003F
:10348C00000000000000000000000000FEFF000033
:10349C00010000000000000001000000FFFF000020
:1034AC00010000000000000000000000000000000F
:1034BC000000000000000000FFFF00000100000001
:1034CC00FFFF00000100000000000000FFFF0000F3
:1034DC0001000000FEFF000001000000FFFF0000E3
:1034EC0001000000FFFF00000000000000000000D1
:1034FC00000000000100000000000000FEFF0000C2
:10350C0001000000FFFF000002000000FEFF0000B1
:10351C000100000001000000FFFF0000010000009E
:10352C00FFFF000000000000000000000000000091
:10353C000000000000000000FFFF0000FFFF000083
:10354C0001000000FFFF000001000000FFFF000071
:10355C000100000000000000FFFF00000000000060
:10356C00000000000100000000000000FFFF000050
:10357C00000000000100000000000000000000003E
:10358C000100000000000000FFFF00000000000030
:10359C00010000000000000001000000FFFF00001F
:1035AC00000000000000000000000000010000000E
:1035BC0001000000FFFF00000000000001000000FF
:1035CC00FFFF0000000000000000000001000000F0
:1035DC00FFFF0000000000000000000000000000E1
:1035EC0001000000000000000000000000000000CE
:1035FC000000000001000000FFFF000000000000C0
:10360C0001000000FFFF000001000000FFFF0000B0
:10361C00000000000100000000000000000000009D
:10362C000100000001000000FFFF0000020000008C
:10363C00FFFF00000100000000000000000000007F
:10364C00000000000100000000000000000000006D
:10365C000100000000000000FFFF0000000000005F
:10366C000100000000000000FFFF0000000000004F
:10367C00020000000100000000000000000000003B
:10368C00010000000000000001000000000000002C
:10369C000100000002000000FFFF0000000000001D
:1036AC00010000000100000000000000010000000B
:1036BC00000000000000000000000000FFFF000000
:1036CC000100000000000000FFFF0000FEFF0000F2
:1036DC0000000000FEFF000000000000FFFF0000E3
:1036EC0000000000FFFF000001000000FEFF0000D2
:1036FC0000000000010000000000000000000000BD
:10370C0000000000FEFF00000100000000000000AF
:10371C000100000000000000FFFF0000000000009E
:10372C00FFFF000001000000FFFF0000FFFF000092
:10373C0001000000FEFF000000000000000000007F
:10374C00000000000000000000000000FFFF00006F
:10375C0001000000FEFF000000000000020000005D
:10376C00FFFF000001000000FFFF00000000000050
:10377C00010000000000000000000000010000003B
:10378C0000000000FFFF000001000000010000002D
:10379C00FFFF000002000000FFFF0000FFFF000021
:1037AC00000000000000000000000000000000000D
:1037BC000000000002000000FFFF000000000000FD
:1037CC00FFFF0000010000000000000000000000EE
:1037DC000000000000000000FFFF0000FFFF0000E1
:1037EC000000000002000000FEFF000001000000CD
:1037FC00FFFF000001000000FFFF000000000000C0
:10380C000100000000000000FFFF000000000000AD
:10381C0000000000FFFF000000000000000000009E
:10382C000000000000000000FFFF0000FFFF000090
:10383C00010000000000000000000000000000007B
:10384C00FFFF00000200000000000000FFFF00006E
:10385C00000000000000000000000000FFFF00005E
:10386C0001000000FEFF000000000000FFFF000050
:10387C0001000000FFFF000000000000FEFF000040
:10388C000100000001000000FFFF0000010000002B
:10389C0000000000FFFF000001000000020000001B
:1038AC0000000000FFFF000002000000FFFF00000E
:1038BC0002000000FFFF00000000000000000000FC
:1038CC0001000000000000000000000000000000EB
:1038DC000000000000000000FFFF000001000000DD
:1038EC00FFFF00000000000001000000FFFF0000CF
:1038FC00000000000100000000000000FFFF0000BD
:10390C0001000000010000000000000000000000A9
:10391C00000000000000000001000000FFFF00009C
:10392C00FFFF00000200000000000000FFFF00008D
:10393C000000000001000000FFFF0000000000007C
:10394C000000000001000000FFFF0000FFFF00006E
:10395C0001000000FFFF0000FFFF0000000000005E
:10396C00FFFF00000000000000000000000000004D
:10397C00FFFF000000000000FFFF0000FFFF000041
:10398C00FFFF00000000000000000000000000002D
:10399C00010000000000000000000000000000001A
:1039AC00FFFF00000000000000000000000000000D
:1039BC0000000000000000000000000001000000FA
:1039CC00FFFF0000FFFF00000100000001000000ED
:1039DC0000000000FFFF000002000000FFFF0000DD
:1039EC000000000001000000FFFF000002000000CA
:1039FC00FFFF000000000000FFFF000000000000BF
:103A0C0001000000FFFF0000FFFF000000000000AD
:103A1C000100000001000000FFFF0000FFFF00009C
:103A2C000000000001000000FFFF0000010000008A
:103A3C000000000000000000010000000100000078
:103A4C00FFFF00000100000000000000010000006A
:103A5C00FFFF0000FFFF000000000000FFFF000060
:103A6C0000000000FEFF0000FFFF0000FCFF000054
:103A7C00FFFF0000FDFF0000FEFF0000FEFF000046
:103A8C00FDFF0000FFFF0000FEFF0000FCFF000038
:103A9C00FFFF0000FFFF0000FEFF0000FFFF000023
:103AAC00FEFF000001000000FFFF0000010000000D
:103ABC00FFFF000001000000FFFF000001000000FC
:103ACC0000000000FFFF00000000000000000000EC
:103ADC00FEFF000001000000FFFF0000FFFF0000E0
:103AEC000100000000000000FEFF000000000000CC
:103AFC00FFFF0000FFFF000001000000FFFF0000BF
:103B0C00FFFF0000000000000100000000000000AA
:103B1C000000000000000000010000000000000098
:103B2C000000000000000000FFFF0000010000008A
:103B3C0002000000FFFF0000000000000000000079
:103B4C00010000000000000002000000FFFF000068
:103B5C000100000001000000000000000100000056
:103B6C000000000001000000000000000100000047
:103B7C00FFFF00000200000000000000FFFF00003B
:103B8C000100000000000000010000000100000026
:103B9C000000000000000000FFFF00000200000019
:103BAC000000000000000000010000000000000008
:103BBC00FFFF0000000000000100000001000000F9
:103BCC00FFFF0000010000000100000000000000E9
:103BDC000000000001000000FFFF000001000000D9
:103BEC0002000000FFFF00000300000000000000C6
:103BFC0001000000010000000200000001000000B4
:103C0C0000000000000000000000000001000000A7
:103C1C00000000000200000001000000FEFF000098
:103C2C000000000001000000FFFF0000FFFF00008B
:103C3C000000000001000000FEFF00000100000079
:103C4C00FEFF00000100000000000000FFFF00006C
:103C5C0001000000FFFF000000000000FFFF00005B
:103C6C000100000000000000FEFF00000100000049
:103C7C00FFFF0000FFFF000001000000000000003B
:103C8C00FFFF000000000000FFFF0000000000002C
:103C9C0000000000FFFF0000000000000100000019
:103CAC00FFFF000002000000FFFF00000100000009
:103CBC0001000000010000000100000000000000F5
:103CCC00FEFF00000100000000000000FFFF0000EC
:103CDC000000000000000000FEFF0000FFFF0000DD
:103CEC0000000000FEFF000000000000FEFF0000CE
:103CFC00FFFF000000000000FEFF000001000000BC
:103D0C00FFFF0000010000000000000000000000A8
:103D1C000100000000000000010000000200000093
:103D2C000100000000000000FFFF00000000000088
:103D3C000000000001000000FFFF0000FEFF00007B
:103D4C0000000000FFFF0000FFFF0000000000006B
:103D5C00FFFF0000FEFF0000FEFF0000000000005F
:103D6C00FFFF0000FFFF0000FEFF0000000000004E
:103D7C00FFFF0000FFFF0000FEFF0000FEFF000041
:103D8C00FEFF0000FDFF0000FEFF0000FEFF000034
:103D9C00FEFF0000FDFF0000FFFF0000FEFF000023
:103DAC0000000000FFFF0000FFFF0000010000000A
:103DBC0002000000020000000400000003000000EC
:103DCC0003000000060000000500000005000000D4
:103DDC0006000000040000000700000005000000C1
:103DEC0005000000060000000500000004000000B3
:103DFC0006000000020000000200000003000000AA
:103E0C00040000000300000001000000010000009D
:103E1C000000000001000000FFFF0000FFFF000099
:103E2C00FDFF0000FFFF0000FDFF0000FFFF000092
:103E3C00FDFF0000FBFF0000FDFF0000FDFF000088
:103E4C00FDFF0000FCFF0000FEFF0000FDFF000076
:103E5C00FCFF000001000000FDFF0000FEFF000061
:103E6C0001000000FFFF0000000000000000000047
:103E7C00020000000100000002000000030000002E
:103E8C00010000000200000004000000030000001C
:103E9C00020000000300000002000000020000000D
:103EAC0002000000030000000200000002000000FD
:103EBC0002000000010000000200000003000000EE
:103ECC0002000000020000000200000001000000DF
:103EDC0003000000010000000200000000000000D0
:103EEC0001000000000000000100000000000000C4
:103EFC00FEFF0000020000000000000000000000B7
:103F0C00FFFF0000020000000100000002000000A2
:103F1C00020000000200000001000000040000008C
:103F2C00020000000100000002000000030000007D
:103F3C00000000000300000003000000020000006D
:103F4C00030000000300000001000000020000005C
:103F5C00020000000200000001000000030000004D
:103F6C00010000000200000001000000030000003E
:103F7C000100000000000000010000000100000032
:103F8C000100000002000000010000000000000021
:103F9C000000000001000000010000000000000013
:103FAC00FFFF00000100000001000000FFFF000007
:103FBC0000000000010000000000000000000000F4
:103FCC0000000000000000000000000000000000E5
:103FDC00FFFF0000FFFF00000000000001000000D8
:103FEC0000000000FFFF0000FFFF000000000000C9
:103FFC000000000002000000FFFF000002000000B3
:10400C0000000000000000000100000001000000A2
:10401C00010000000100000000000000FEFF000095
:10402C00000000000000000000000000FFFF000086
:10403C00FFFF0000FEFF0000FEFF0000000000007C
:10404C0001000000FFFF0000000000000000000065
:10405C0000000000FFFF0000FEFF0000FFFF00005B
:10406C00FEFF0000FFFF0000FCFF0000FFFF000050
:10407C00FDFF0000FAFF0000FDFF0000FBFF000049
:10408C00FBFF0000FAFF0000FBFF0000FBFF00003D
:10409C00F8FF0000F7FF0000FBFF0000F8FF000036
:1040AC00FAFF0000FAFF0000F9FF0000FAFF000021
:1040BC00FAFF0000FCFF0000F8FF0000FBFF00000F
:1040CC00FAFF0000FAFF0000FBFF0000FBFF0000FE
:1040DC00FCFF0000FAFF0000FAFF0000FAFF0000EE
:1040EC00FAFF0000FAFF0000FAFF0000F9FF0000E1
:1040FC00F9FF0000F8FF0000FCFF0000F9FF0000D2
:10410C00F8FF0000F8FF0000F9FF0000F8FF0000C6
:10411C00FAFF0000F9FF0000FAFF0000F9FF0000B1
:10412C00FAFF0000FBFF0000FBFF0000FAFF00009D
:10413C00FBFF0000F9FF0000FBFF0000FBFF00008D
:10414C00F9FF0000FBFF0000FEFF0000FCFF000079
:10415C00FDFF0000FCFF0000FFFF0000FDFF000062
:10416C00FEFF0000FDFF0000FEFF0000FCFF000052
:10417C00FEFF0000FDFF0000FCFF0000FDFF000043
:10418C00FDFF0000FEFF0000FDFF0000FCFF000033
:10419C00FCFF0000FCFF0000FDFF0000FAFF000028
:1041AC00FBFF0000FDFF0000FDFF0000FDFF000015
:1041BC00FCFF0000FBFF0000FEFF0000FBFF000007
:1041CC00FDFF0000FDFF0000FCFF0000FCFF0000F5
:1041DC00FDFF0000FCFF0000FBFF0000FEFF0000E5
:1041EC00FAFF0000FBFF0000FEFF0000FBFF0000D9
:1041FC00FDFF0000FAFF0000FDFF0000FAFF0000C9
:10420C00FCFF0000FBFF0000FCFF0000FEFF0000B5
:10421C00FCFF0000FEFF0000FDFF0000FCFF0000A3
:10422C00FDFF0000FCFF0000FCFF0000FDFF000094
:10423C00FDFF0000FDFF0000FCFF0000FCFF000084
:10424C00FDFF0000FDFF0000FEFF0000FDFF000071
:10425C00FDFF0000FEFF0000FDFF0000000000005D
:10426C00FEFF000000000000FDFF00000000000049
:10427C00FCFF0000FFFF0000FFFF0000FEFF00003E
:10428C00FEFF0000FFFF0000FFFF00000100000028
:10429C00000000000000000004000000010000000D
:1042AC0002000000030000000400000003000000F6
:1042BC0005000000040000000300000004000000E2
:1042CC0006000000060000000500000006000000CB
:1042DC0005000000060000000400000004000000BF
:1042EC0005000000050000000500000006000000AD
:1042FC00050000000600000006000000050000009C
:10430C00070000000500000004000000040000008D
:10431C00050000000500000004000000050000007E
:10432C00030000000400000006000000050000006F
:10433C00080000000400000005000000060000005A
:10434C00050000000500000004000000060000004D
:10435C000500000002000000030000000300000044
:10436C000200000005000000030000000300000034
:10437C000100000002000000040000000200000028
:10438C00000000000200000003000000FFFF00001E
:10439C0003000000FDFF0000FFFF0000FFFF000016
:1043AC00FEFF0000FEFF0000FDFF0000FBFF000011
:1043BC00FBFF0000FCFF0000FAFF0000F8FF00000C
:1043CC00F6FF0000FBFF0000F5FF0000F4FF00000B
:1043DC00FAFF0000F5FF0000F5FF0000F6FF0000FB
:1043EC00F4FF0000F4FF0000F4FF0000F6FF0000F3
:1043FC00F5FF0000F5FF0000F3FF0000F2FF0000E6
:10440C00F1FF0000F2FF0000F0FF0000F1FF0000E0
:10441C00EFFF0000EFFF0000EEFF0000EAFF0000DE
:10442C00EDFF0000ECFF0000EBFF0000EBFF0000D5
:10443C00EDFF0000EBFF0000E9FF0000E5FF0000CE
:10444C00E5FF0000E7FF0000E5FF0000E2FF0000D1
:10445C00E4FF0000E5FF0000E6FF0000E1FF0000C4
:10446C00E2FF0000E3FF0000E0FF0000E0FF0000BF
:10447C00E1FF0000E0FF0000E0FF0000DCFF0000B7
:10448C00DEFF0000DBFF0000DDFF0000DAFF0000B4
:10449C00D9FF0000D8FF0000D8FF0000D8FF0000B3
:1044AC00D9FF0000D8FF0000D6FF0000D8FF0000A5
:1044BC00D6FF0000D6FF0000D5FF0000D4FF00009F
:1044CC00D8FF0000D3FF0000D1FF0000CFFF000099
:1044DC00CFFF0000D0FF0000CDFF0000CEFF00009A
:1044EC00CFFF0000C9FF0000CBFF0000CAFF000097
:1044FC00CBFF0000CAFF0000CAFF0000C8FF00008D
:10450C00C9FF0000CBFF0000C9FF0000C9FF00007D
:10451C00CAFF0000CAFF0000C6FF0000CAFF00006F
:10452C00CAFF0000CAFF0000C8FF0000C7FF000060
:10453C00C9FF0000CAFF0000C9FF0000CBFF00004C
:10454C00C9FF0000CAFF0000C9FF0000C7FF000040
:10455C00C8FF0000C6FF0000C6FF0000C6FF000039
:10456C00C4FF0000C1FF0000C2FF0000C0FF00003C
:10457C00C5FF0000C1FF0000C0FF0000C0FF00002D
:10458C00BBFF0000BEFF0000BCFF0000BBFF000033
:10459C00B8FF0000B5FF0000B9FF0000B5FF000038
:1045AC00AFFF0000B0FF0000B2FF0000B6FF00003C
:1045BC00ADFF0000ADFF0000AFFF0000ACFF00003E
:1045CC00ADFF0000AAFF0000A9FF0000A9FF00003A
:1045DC00A6FF0000A2FF00009EFF00009EFF00004F
:1045EC009BFF00009BFF000097FF000093FF000063
:1045FC0090FF00008AFF000086FF000084FF00008F
:10460C0081FF00007CFF00007DFF000078FF0000B0
:10461C0075FF000075FF00006CFF00006FFF0000CD
:10462C0064FF000062FF00005DFF000057FF000008
:10463C0055FF000050FF00004FFF000048FF000036
:10464C0040FF00003FFF00003FFF000035FF00006F
:10465C002DFF00002EFF000029FF000025FF0000A9
:10466C0024FF00001EFF000017FF00000FFF0000DA
:10467C000EFF000006FF000000FF0000FBFE000024
:10468C00F6FE0000EFFE0000EAFE0000E9FE00006E
:10469C00E2FE0000D9FE0000D1FE0000CCFE0000BE
:1046AC00C6FE0000BFFE0000B6FE0000B4FE000017
:1046BC00ABFE0000A4FE00009BFE000097FE000075
:1046CC008EFE000088FE000080FE000079FE0000D7
:1046DC0071FE000069FE000060FE00005AFE000042
:1046EC0055FE00004FFE000045FE00003CFE0000A1
:1046FC0039FE000033FE000030FE000028FE0000F2
:10470C0020FE00001CFE000014FE00000DFE000048
:10471C0005FE0000FCFD0000F7FD0000EFFD0000B1
:10472C00E6FD0000E2FD0000DAFD0000CFFD000018
:10473C00C5FD0000B8FD0000B5FD0000B2FD000095
:10474C00ADFD0000A5FD000098FD000091FD0000EE
:10475C008BFD00007AFD000076FD000070FD00006E
:10476C006CFD00006BFD000055FD00004CFD0000D1
:10477C0045FD000035FD000035FD00002CFD00005E
:10478C0027FD00001CFD00001AFD000013FD0000B9
:10479C000AFD0000FFFC0000F6FC0000F3FC00002A
:1047AC00ECFC0000E3FC0000D8FC0000D3FC000093
:1047BC00D0FC0000CCFC0000C2FC0000BCFC0000E3
:1047CC00BAFC0000BAFC0000B4FC0000AFFC000016
:1047DC00AAFC0000A8FC0000A7FC0000A5FC00003F
:1047EC00A1FC00009FFC00009FFC00009CFC000052
:1047FC009DFC00009AFC000099FC000097FC000056
:10480C0099FC00009AFC00009FFC00009CFC00003E
:10481C009DFC00009FFC0000A3FC0000A4FC000019
:10482C00A5FC0000A8FC0000AEFC0000B6FC0000DB
:10483C00B9FC0000BBFC0000BEFC0000BDFC00008D
:10484C00C3FC0000CCFC0000D0FC0000D4FC000039
:10485C00DBFC0000E0FC0000EDFC0000F1FC0000C3
:10486C00F7FC0000FFFC000002FD00000CFD000046
:10487C0015FD00001EFD00002BFD000031FD0000A9
:10488C003CFD000047FD00004FFD000058FD0000FE
:10489C0064FD00006DFD000079FD000087FD000047
:1048AC008BFD000097FD0000A0FD0000ABFD00009B
:1048BC00B5FD0000BFFD0000C6FD0000D0FD0000EE
:1048CC00DCFD0000E5FD0000E9FD0000F1FD00004D
:1048DC00FBFD000005FE00000EFE00001AFE0000AD
:1048EC0026FE000037FE000040FE00004DFE0000DA
:1048FC0055FE00005FFE000067FE000071FE000028
:10490C0082FE000090FE00009EFE0000A2FE000051
:10491C00A8FE0000B3FE0000BEFE0000C9FE0000B1
:10492C00D7FE0000E6FE0000F7FE000001FF0000CD
:10493C000BFF000012FF00001EFF000026FF00000E
:10494C002AFF000033FF000037FF00003FFF00008C
:10495C0045FF00004AFF000052FF00005AFF000014
:10496C0061FF000064FF000064FF000067FF0000AF
:10497C006CFF000070FF000073FF000073FF00006D
:10498C0074FF000077FF000076FF00007AFF000044
:10499C007CFF000076FF000085FF00007FFF000019
:1049AC0075FF00007BFF000086FF000089FF000000
:1049BC008CFF000089FF000086FF000090FF0000C4
:1049CC0094FF000099FF0000A2FF0000A8FF000068
:1049DC00A9FF0000ABFF0000B3FF0000B2FF000016
:1049EC00B7FF0000C4FF0000C9FF0000D6FF0000A5
:1049FC00DEFF0000E2FF0000E6FF0000E7FF000022
:104A0C00ECFF0000EEFF0000EEFF0000F7FF0000DF
:104A1C00FCFF0000FFFF000001000000FEFF000093
:104A2C00070000000C0000000D0000000600000054
:104A3C00060000000B0000000B0000000B00000043
:104A4C00090000000300000000000000030000004B
:104A5C00FEFF0000F9FF0000FAFF0000F6FF000067
:104A6C00F8FF0000FCFF0000000000000100000047
:104A7C00030000000A0000000D0000000800000008
:104A8C000C000000120000001900000018000000CB
:104A9C0018000000170000001C00000019000000A6
:104AAC00190000001E0000001D0000001B0000008B
:104ABC00180000001B00000026000000270000006A
:104ACC00220000001F000000200000002600000053
:104ADC002D0000002800000025000000230000002D
:104AEC00260000002D000000300000002E00000009
:104AFC002B0000002D0000003000000033000000EF
:104B0C003F0000003B00000042000000510000008C
:104B1C005800000061000000690000007C000000EB
:104B2C008400000084000000830000008D00000061
:104B3C00A3000000AE000000B4000000B6000000AE
:104B4C00B9000000CC000000DC000000E000000018
:104B5C00DE000000E8000000E3000000EC000000B4
:104B6C0004010000FC000000FC000000FF0000003D
:104B7C00F900000007010000110100001201000003
:104B8C000C0100000F0100000F01000014010000D7
:104B9C001D01000022010000260100001E01000082
:104BAC002601000038010000440100004A01000009
:104BBC004C01000053010000560100005D01000093
:104BCC006701000068010000750100008001000011
:104BDC008801000093010000A1010000AF0100005A
:104BEC00BB010000C4010000C9010000D00100009D
:104BFC00E3010000EE010000F901000007020000D3
:104C0C001A020000310200003902000044020000C8
:104C1C0057020000640200007602000082020000CD
:104C2C008902000096020000AE020000BB020000E8
:104C3C00BB020000BE020000D3020000EB02000029
:104C4C00F402000003030000110300002303000022
:104C5C00300300003D030000450300005103000039
:104C6C006003000070030000850300009203000045
:104C7C009D030000AA030000B7030000C30300005B
:104C8C00D0030000DD030000E8030000F103000086
:104C9C00FE030000180400002A0400002D0400008C
:104CAC0034040000380400003F04000043040000FA
:104CBC00490400004E0400004A0400004C040000AB
:104CCC0054040000590400005E0400005404000069
:104CDC00470400003A0400002F04000031040000D7
:104CEC00310400001F0400000D0400000E0400003D
:104CFC00110400000F04000007040000F70300007B
:104D0C00F5030000EA030000D5030000C303000014
:104D1C00AF0300009B0300007C0300005C03000059
:104D2C004A030000400300002A0300000A030000AD
:104D3C00EB020000D0020000B5020000920200005D
:104D4C0069020000520200003A0200001D0200003D
:104D5C00F7010000E4010000DC010000B2010000DA
:104D6C007C0100005F0100005801000041010000BF
:104D7C0016010000F3000000E6000000D300000064
:104D8C00AF00000085000000680000005500000026
:104D9C00430000002A00000016000000060000007E
:104DAC00EDFF0000D8FF0000C2FF0000A7FF0000CD
:104DBC008AFF000070FF00005EFF00004FFF000044
:104DCC0048FF00004BFF00004AFF000048FF0000B6
:104DDC003EFF000032FF000028FF000037FF0000FC
:104DEC0046FF000041FF00002BFF000025FF0000E4
:104DFC0031FF00003EFF000048FF000050FF0000A4
:104E0C005BFF000070FF00008EFF0000A4FF00009D
:104E1C00C3FF0000E0FF0000FEFF000013000000D5
:104E2C00210000003F0000006B0000009200000019
:104E3C00AD000000CC000000F60000001A010000DC
:104E4C003C0100005D01000083010000A201000094
:104E5C00B6010000D9010000100200003E02000063
:104E6C006002000084020000AF020000D9020000C2
:104E7C00FF02000020030000440300007503000043
:104E8C00A7030000CF030000F7030000320400006A
:104E9C0072040000AC040000D70400000C050000F4
:104EAC0057050000B005000008060000650600006C
:104EBC00C5060000140700005E070000A8070000EC
:104ECC00F90700004E08000095080000D208000009
:104EDC00150900005E0900009F090000D7090000B9
:104EEC00050A00002A0A00004F0A0000700A0000A0
:104EFC00900A0000A70A0000BD0A0000C60A0000C4
:104F0C00CA0A0000C20A0000B30A00009F0A00008F
:104F1C00840A0000600A00003B0A0000280A000016
:104F2C00090A0000D4090000970900005A09000082
:104F3C002A090000FC080000C908000098080000BD
:104F4C006A0800002D080000E7070000A607000013
:104F5C006707000023070000E2060000A706000018
:104F6C006C0600002F060000E60500009D05000001
:104F7C005F0500001C050000D20400009504000031
:104F8C004B040000F3030000860300001A0300002A
:104F9C00B502000041020000BC0100003901000014
:104FAC00BE00000044000000D3FF000067FF0000BB
:104FBC00EDFE000050FE000090FD0000D2FC000051
:104FCC000FFC000028FB000037FA000052F900002B
:104FDC0091F80000E0F7000018F700001DF6000043
:104FEC00EBF40000A1F300004FF2000005F100000B
:104FFC00E1EF0000DAEE0000A6ED000020EC00006E
:10500C00A1EA00005EE90000F4E7000000E6000001
:10501C00EDE300002BE200003DE00000B0DD0000FD
:10502C0086DB00001CDB000016DC000096DC0000B8
:10503C00F5DB000052DB00007EDB000006DC00002C
:10504C0075DC000029DD00007FDE000025E000009B
:10505C00C0E1000074E300004CE5000016E700001E
:10506C00E6E80000FFEA00006AED000012F0000024
:10507C00E8F20000FCF5000041F900005FFC0000C4
:10508C0010FF00008A0100000D04000067060000FC
:10509C005F080000E8090000300B00007D0C0000E8
:1050AC00AC0D0000570E00008C0E00009B0E000093
:1050BC00A50E0000A70E0000920E0000780E000056
:1050CC00220E0000550D0000650C00000E0C0000B7
:1050DC00090C00006E0B0000460A00003A090000A3
:1050EC00790800008707000045060000260500002F
:1050FC0047040000460300000F02000000010000FE
:10510C00410000008DFF0000A5FE0000B3FD000073
:10511C00F2FC000043FC0000B7FB000058FB000051
:10512C0002FB0000B9FA000080FA00005EFA0000F1
:10513C0064FA000090FA0000CFFA000021FB000096
:10514C0098FB00004DFC000022FD0000F1FD00006A
:10515C00C0FE0000EBFF000057010000B102000090
:10516C00EF0300003E050000AB0600002A0800001B
:10517C0099090000F80A0000690C0000F00D00000D
:10518C00690F0000A6100000CD11000029130000CB
:10519C00A5140000FB150000FE160000DD17000032
:1051AC00AE18000077190000161A0000A81A0000AB
:1051BC003B1B0000881B0000881B0000741B0000B8
:1051CC00711B0000521B00000A1B0000A91A0000F2
:1051DC00521A0000E519000044190000B91800002B
:1051EC003C180000A2170000C3160000C3150000F5
:1051FC00EF140000461400007B1300007112000035
:10520C004511000031100000400F0000560E000048
:10521C00470D0000120C0000D20A0000A509000086
:10522C009E08000098070000880600005905000041
:10523C001C040000F5020000E1010000DD0000008C
:10524C00E8FF0000E6FE0000C9FD0000ADFC000018
:10525C00BCFB0000D1FA0000C9F90000CFF8000037
:10526C00C4F70000C4F60000AAF5000086F40000A4
:10527C0070F3000017F2000086F000001BEF000036
:10528C0011EE0000CCEC00003FEB0000A2E90000A6
:10529C0055E800000DE700006CE5000007E4000095
:1052AC00A2E20000A0E00000CADE0000D3DD000096
:1052BC0093DB0000B2D8000077D6000015D40000B4
:1052CC00B2D20000A3D200004FD3000019D30000CB
:1052DC00E1D10000E2D00000FBD00000B4D100000E
:1052EC00AED20000EBD400006ED600006FD70000E9
:1052FC0061D90000D4DB000072DE0000BCE00000CD
:10530C0044E30000D5E5000096E80000F8EB00004F
:10531C00E8EF0000E5F3000046F70000C8FA0000D3
:10532C0078FE00005F01000013040000F00600008E
:10533C000F090000800A0000320C00004A0E000029
:10534C000E1000007D100000A7100000A511000039
:10535C00F1110000D5110000AC110000C0100000CC
:10536C00AC0F0000F00E00003B0E00001B0D000007
:10537C00520C0000D70B0000E40A00009708000054
:10538C00840600004206000085050000940300001E
:10539C00DC010000BD000000B7FF00009BFE000018
:1053AC005DFD000048FC0000A0FB000019FB0000A4
:1053BC002AFA0000F6F800006AF800002CF8000049
:1053CC0087F7000077F6000041F6000008F70000B0
:1053DC005EF7000043F7000080F70000B0F8000013
:1053EC0001FA0000FCFA00001BFC000094FD000018
:1053FC007FFF00008201000059030000FD04000043
:10540C0001070000570900001F0B0000FC0B0000F7
:10541C00910D0000FD0F0000E111000013130000BE
:10542C00A81300000A150000AC1600008717000036
:10543C007118000033190000281A0000B21A00007D
:10544C00F41A0000B01B0000421C0000981C000065
:10545C005A1C00000C1C0000291C00005E1C0000E3
:10546C00F61B0000141B0000F81A0000E11A0000E3
:10547C006C1A0000151A0000EE190000D419000077
:10548C0014190000121800008A170000731600008F
:10549C00021500001C1400003C13000069120000EF
:1054AC00FD100000870F0000CE0E00001F0E000044
:1054BC007F0D0000760C0000420B00007F0A0000FC
:1054CC00DA090000FB080000E807000005070000EF
:1054DC00420600005205000045040000C602000010
:1054EC0091010000C1000000CCFF0000AEFE0000E6
:1054FC00DDFC000004FB0000ADF90000A6F8000084
:10550C0056F70000B0F5000003F4000094F2000020
:10551C00B4F10000C6F000006FEF00008AED00004F
:10552C0008EC0000CEEA000052E9000001E800009F
:10553C00AAE6000081E5000021E400009AE20000E8
:10554C00F2E00000F5DE000017DD000044DB000097
:10555C0013D90000D5D600009ED4000079D20000EB
:10556C00B9D100000AD20000DED2000087D30000BF
:10557C00FFD20000EED1000070D10000FCD1000081
:10558C00FFD200002AD400007ED5000050D70000C6
:10559C007AD9000091DB000037DE00000BE100003F
:1055AC00C6E300003DE60000F6E80000F1EB000069
:1055BC006FEF000035F30000D6F6000037FB00005B
:1055CC003BFE00002A010000C9040000E3060000B5
:1055DC003F090000020B0000320C0000EC0D000033
:1055EC009D0F000004110000D41100001D120000DA
:1055FC00761200004C130000EF1200001212000093
:10560C0059110000341100002B110000FC0F000098
:10561C00370F0000320E0000030D00008C0B000051
:10562C00FB0900001F0900006B070000810500004A
:10563C00FB0300002F020000C700000095FF0000D4
:10564C00D9FD00009BFC0000B1FB000025FB000015
:10565C00C0FA000085F90000F7F8000001F900001D
:10566C0090F80000E0F700007AF7000091F70000D6
:10567C0074F7000074F7000008F8000081F80000CF
:10568C001EF9000069FA0000DAFB0000F2FC0000D1
:10569C0031FE0000C1FF0000140100008502000073
:1056AC00D103000068050000560700000B0900003C
:1056BC003B0B00006C0D0000580F0000B9100000EF
:1056CC00D5110000011300001D1400006D15000021
:1056DC008316000005180000E9190000541B000097
:1056EC006E1C00006F1D0000C51E00002B1F00006B
:1056FC005A1E00005C1E0000251F0000C51F000084
:10570C000C1F00008A1D0000E11D0000031F00009B
:10571C00101F0000FA1D0000F01C0000441D0000CA
:10572C00891D00008B1C0000051B0000751A000071
:10573C00261A000036190000E51700002E1600008E
:10574C00B5150000C91400007013000070120000A1
:10575C007811000073110000411000002D0F0000A3
:10576C001C0E00000C0D0000600C0000CD0A0000A7
:10577C00820900007A07000031060000F9050000DC
:10578C00DC0400003B030000B401000057000000E3
:10579C00D3FE0000FAFC00007CFB0000E7FA0000DE
:1057AC0006F90000A9F60000EDF400006EF300000D
:1057BC00EAF1000039F0000009EF0000ADED000047
:1057CC0030EC0000B3EA0000D6E9000088E80000E5
:1057DC0069E60000BAE4000083E30000C9E10000C0
:1057EC00A4DE000011DC0000EEDB000090DB00000A
:1057FC0088D8000053D5000030D2000035CF00000F
:10580C00B4CE000099CF0000BDCC00003CC9000014
:10581C0089CC000015D3000014D4000020CF000068
:10582C0042D1000099D50000B4D300009FD40000F1
:10583C0031DA00008EE1000086E4000019E9000076
:10584C0069F30000D3F8000009F9000040F90000EA
:10585C0058FE0000E2030000B6050000E20900005B
:10586C00690E0000DC0F0000061200009B16000001
:10587C00F21A00005B1B0000081B00006D1D0000ED
:10588C00CE1D0000871A0000DF160000C6150000B0
:10589C0071150000D2120000E71000005911000031
:1058AC007A100000380E0000D40D0000EE0C000041
:1058BC000F090000D9030000F3000000BA0000003B
:1058CC0019FE000081FB00002EFB0000FDFA000019
:1058DC0020FB0000AAF90000C8F9000073F90000D1
:1058EC003CF6000056F40000C3F2000078F2000011
:1058FC003BF10000DCEF00008CF0000064F10000D4
:10590C002BF40000DAF500009DF60000EBF8000027
:10591C002AFA000041FB0000A3FC0000A8FE0000D6
:10592C0028030000910500004A070000FF0A000050
:10593C00DA0E0000821300005C150000B7160000A0
:10594C00FA170000DC17000052190000281B000099
:10595C00811D00006D1D0000631C00007A1C0000FE
:10596C00531C0000481D0000271D0000C71C000030
:10597C007C1C0000A11B0000071C0000CE190000BD
:10598C001418000006190000191A0000AC1C0000C5
:10599C000A1B0000651B0000B11D0000DC1B000091
:1059AC00821C00003A1B00004A1B00007D1B0000FB
:1059BC003D1A0000A31B0000A71900007C19000071
:1059CC00481A0000C11900004E180000BA1500005A
:1059DC00A9150000211300003B120000491400001F
:1059EC003E140000261400004C1300009E12000010
:1059FC00D81200000C1100003D0E0000300D00000C
:105A0C00920B0000DE0800009D0600006B060000F3
:105A1C0022070000E1050000B4030000490000006B
:105A2C0022FE00003AFB0000BCF60000D6F4000099
:105A3C00D1F2000096F000006FED000097EA000034
:105A4C00E8E900006CE8000098E50000DAE10000ED
:105A5C0008DF0000B5DB0000E4D5000058D10000E1
:105A6C00BBCE000017CC000063C7000048C200008A
:105A7C005ABF00000CBB0000EFB9000072B9000067
:105A8C009CB50000B6B8000043C30000B1CF0000C5
:105A9C00EFD400000DD9000044E7000027F400000B
:105AAC001AF7000039F4000081F80000160100001C
:105ABC0029010000BC000000FE060000860E00005C
:105ACC0078110000270E0000360D00008212000035
